{
  "contractName": "LinkedListLib",
  "abi": [
    {
      "constant": true,
      "inputs": [
        {
          "name": "self",
          "type": "LinkedListLib.LinkedList storage"
        },
        {
          "name": "_node",
          "type": "uint256"
        }
      ],
      "name": "getNode",
      "outputs": [
        {
          "name": "",
          "type": "bool"
        },
        {
          "name": "",
          "type": "uint256"
        },
        {
          "name": "",
          "type": "uint256"
        }
      ],
      "payable": false,
      "stateMutability": "view",
      "type": "function"
    },
    {
      "constant": true,
      "inputs": [
        {
          "name": "self",
          "type": "LinkedListLib.LinkedList storage"
        },
        {
          "name": "_node",
          "type": "uint256"
        },
        {
          "name": "_direction",
          "type": "bool"
        }
      ],
      "name": "getAdjacent",
      "outputs": [
        {
          "name": "",
          "type": "bool"
        },
        {
          "name": "",
          "type": "uint256"
        }
      ],
      "payable": false,
      "stateMutability": "view",
      "type": "function"
    },
    {
      "constant": true,
      "inputs": [
        {
          "name": "self",
          "type": "LinkedListLib.LinkedList storage"
        },
        {
          "name": "_node",
          "type": "uint256"
        },
        {
          "name": "_value",
          "type": "uint256"
        },
        {
          "name": "_direction",
          "type": "bool"
        }
      ],
      "name": "getSortedSpot",
      "outputs": [
        {
          "name": "",
          "type": "uint256"
        }
      ],
      "payable": false,
      "stateMutability": "view",
      "type": "function"
    }
  ],
  "bytecode": "0x6102d8610030600b82828239805160001a6073146000811461002057610022565bfe5b5030600052607381538281f300730000000000000000000000000000000000000000301460806040526004361061006d5763ffffffff7c0100000000000000000000000000000000000000000000000000000000600035041663352a714b8114610072578063574047ac1461009a578063d99455bd146100c8575b600080fd5b61008860043560243560443560643515156100f6565b60408051918252519081900360200190f35b6100ad6004356024356044351515610192565b60408051921515835260208301919091528051918290030190f35b6100d66004356024356101d8565b604080519315158452602084019290925282820152519081900360600190f35b60008060006101048761022b565b15156101135760009250610188565b85158061012557506101258787610232565b151561013057600080fd5b61013b878786610192565b90925090505b80158015906101505750808514155b8015610160575080851084151514155b15610184576000908152602087815260408083208615158452909152902054610141565b8092505b5050949350505050565b60008061019f8585610232565b15156101b0575060009050806101d0565b505060008281526020848152604080832084151584529091529020546001905b935093915050565b60008060006101e78585610232565b15156101fb57506000915081905080610224565b505050600081815260208381526040808320838052808352818420546001808652919093529220545b9250925092565b6001015490565b60008181526020838152604080832083805290915281205415801561026d575060008281526020848152604080832060018452909152902054155b156102a2576000808052602084815260408083206001845290915290205482141561029a575060016102a6565b5060006102a6565b5060015b929150505600a165627a7a72305820b3f881bab5637b292eb5824ed6a091a1c218feac202d85874d93707c595f0b680029",
  "source": "pragma solidity ^0.4.24;\n\n/**\n * This utility library was forked from https://github.com/o0ragman0o/LibCLL\n */\nlibrary LinkedListLib {\n\n    uint256 constant NULL = 0;\n    uint256 constant HEAD = 0;\n    bool constant PREV = false;\n    bool constant NEXT = true;\n\n    struct LinkedList {\n        mapping (uint256 => mapping (bool => uint256)) list;\n        uint256 length;\n        uint256 index;\n    }\n\n    /**\n     * @dev returns true if the list exists\n     * @param self stored linked list from contract\n     */\n    function listExists(LinkedList storage self)\n        internal\n        view returns (bool) {\n        return self.length > 0;\n    }\n\n    /**\n     * @dev returns true if the node exists\n     * @param self stored linked list from contract\n     * @param _node a node to search for\n     */\n    function nodeExists(LinkedList storage self, uint256 _node)\n        internal\n        view returns (bool) {\n        if (self.list[_node][PREV] == HEAD && self.list[_node][NEXT] == HEAD) {\n            if (self.list[HEAD][NEXT] == _node) {\n                return true;\n            } else {\n                return false;\n            }\n        } else {\n            return true;\n        }\n    }\n\n    /**\n     * @dev Returns the number of elements in the list\n     * @param self stored linked list from contract\n     */ \n    function sizeOf(LinkedList storage self) \n        internal \n        view \n        returns (uint256 numElements) {\n        return self.length;\n    }\n\n    /**\n     * @dev Returns the links of a node as a tuple\n     * @param self stored linked list from contract\n     * @param _node id of the node to get\n     */\n    function getNode(LinkedList storage self, uint256 _node)\n        public \n        view \n        returns (bool, uint256, uint256) {\n        if (!nodeExists(self,_node)) {\n            return (false, 0, 0);\n        } else {\n            return (true, self.list[_node][PREV], self.list[_node][NEXT]);\n        }\n    }\n\n    /**\n     * @dev Returns the link of a node `_node` in direction `_direction`.\n     * @param self stored linked list from contract\n     * @param _node id of the node to step from\n     * @param _direction direction to step in\n     */\n    function getAdjacent(LinkedList storage self, uint256 _node, bool _direction)\n        public \n        view \n        returns (bool, uint256) {\n        if (!nodeExists(self,_node)) {\n            return (false,0);\n        } else {\n            return (true,self.list[_node][_direction]);\n        }\n    }\n\n    /**\n     * @dev Can be used before `insert` to build an ordered list\n     * @param self stored linked list from contract\n     * @param _node an existing node to search from, e.g. HEAD.\n     * @param _value value to seek\n     * @param _direction direction to seek in\n     * @return next first node beyond '_node' in direction `_direction`\n     */\n    function getSortedSpot(LinkedList storage self, uint256 _node, uint256 _value, bool _direction)\n        public \n        view \n        returns (uint256) {\n        if (sizeOf(self) == 0) { \n            return 0; \n        }\n        require((_node == 0) || nodeExists(self,_node));\n        bool exists;\n        uint256 next;\n        (exists,next) = getAdjacent(self, _node, _direction);\n        while  ((next != 0) && (_value != next) && ((_value < next) != _direction)) next = self.list[next][_direction];\n        return next;\n    }\n\n    /**\n     * @dev Creates a bidirectional link between two nodes on direction `_direction`\n     * @param self stored linked list from contract\n     * @param _node first node for linking\n     * @param _link  node to link to in the _direction\n     */\n    function createLink(LinkedList storage self, uint256 _node, uint256 _link, bool _direction) \n        private {\n        self.list[_link][!_direction] = _node;\n        self.list[_node][_direction] = _link;\n    }\n\n    /**\n     * @dev Insert node `_new` beside existing node `_node` in direction `_direction`.\n     * @param self stored linked list from contract\n     * @param _node existing node\n     * @param _new  new node to insert\n     * @param _direction direction to insert node in\n     */\n    function insert(LinkedList storage self, uint256 _node, uint256 _new, bool _direction) \n        internal \n        returns (bool) {\n        if(!nodeExists(self,_new) && nodeExists(self,_node)) {\n            uint256 c = self.list[_node][_direction];\n            createLink(self, _node, _new, _direction);\n            createLink(self, _new, c, _direction);\n            self.length++;\n            return true;\n        } else {\n            return false;\n        }\n    }\n\n    /**\n     * @dev removes an entry from the linked list\n     * @param self stored linked list from contract\n     * @param _node node to remove from the list\n     */\n    function remove(LinkedList storage self, uint256 _node) \n        internal \n        returns (uint256) {\n        if ((_node == NULL) || (!nodeExists(self,_node))) { \n            return 0; \n        }\n        createLink(self, self.list[_node][PREV], self.list[_node][NEXT], NEXT);\n        delete self.list[_node][PREV];\n        delete self.list[_node][NEXT];\n        self.length--;\n        return _node;\n    }\n\n    /**\n     * @dev pushes an enrty to the head of the linked list\n     * @param self stored linked list from contract\n     * @param _index The node Id\n     * @param _direction push to the head (NEXT) or tail (PREV)\n     */\n    function add(LinkedList storage self, uint256 _index, bool _direction) \n        internal \n        returns (uint256) {\n        insert(self, HEAD, _index, _direction);\n        return self.index;\n    }\n\n    /**\n     * @dev pushes an enrty to the head of the linked list\n     * @param self stored linked list from contract\n     * @param _direction push to the head (NEXT) or tail (PREV)\n     */\n    function push(LinkedList storage self, bool _direction) \n        internal \n        returns (uint256) {\n        self.index++;\n        insert(self, HEAD, self.index, _direction);\n        return self.index;\n    }\n\n    /**\n     * @dev pops the first entry from the linked list\n     * @param self stored linked list from contract\n     * @param _direction pop from the head (NEXT) or the tail (PREV)\n     */\n    function pop(LinkedList storage self, bool _direction) \n        internal \n        returns (uint256) {\n        bool exists;\n        uint256 adj;\n        (exists,adj) = getAdjacent(self, HEAD, _direction);\n        return remove(self, adj);\n    }\n}",
  "sourcePath": "/Users/Kirn/Documents/Workspace/Trip.io/tripio-tron/tronbox/contracts/libs/LinkedListLib.sol",
  "compiler": {
    "name": "solc",
    "version": "0.4.24+commit.e67f0147.Emscripten.clang"
  },
  "schemaVersion": "2.0.1",
  "updatedAt": "2018-11-24T04:36:25.068Z"
}