{
  "contractName": "Test",
  "abi": [
    {
      "inputs": [],
      "payable": false,
      "stateMutability": "nonpayable",
      "type": "constructor"
    },
    {
      "constant": false,
      "inputs": [],
      "name": "buy",
      "outputs": [],
      "payable": true,
      "stateMutability": "payable",
      "type": "function"
    },
    {
      "constant": true,
      "inputs": [],
      "name": "getValue",
      "outputs": [
        {
          "name": "",
          "type": "uint256"
        }
      ],
      "payable": false,
      "stateMutability": "view",
      "type": "function"
    }
  ],
  "bytecode": "0x608060405234801561001057600080fd5b5060b18061001f6000396000f30060806040526004361060485763ffffffff7c0100000000000000000000000000000000000000000000000000000000600035041663209652558114604d578063a6f2ae3a146071575b600080fd5b348015605857600080fd5b50605f6079565b60408051918252519081900360200190f35b6077607f565b005b60005490565b346000555600a165627a7a7230582081b91ae6c021236dba9a99d4f9ee807ec611b0544750b5cd5c6173d17a4f6c810029",
  "source": "pragma solidity ^0.4.24;\n\ncontract Test {\n    uint256 value;\n    constructor() public {\n\n    }\n\n    function buy() public payable {\n        value = msg.value;\n        // msg.sender.transfer(msg.value);\n    }\n\n    function getValue() public view returns(uint256) {\n        return value;\n    }\n}\n",
  "sourcePath": "/Users/Kirn/Documents/Workspace/Trip.io/tripio-tron/tronbox/contracts/Test.sol",
  "compiler": {
    "name": "solc",
    "version": "0.4.24+commit.e67f0147.Emscripten.clang"
  },
  "schemaVersion": "2.0.1",
  "updatedAt": "2018-11-24T03:04:27.012Z"
}