{
  "contractName": "TripioRoomNightVendor",
  "abi": [
    {
      "constant": false,
      "inputs": [
        {
          "name": "_name",
          "type": "string"
        },
        {
          "name": "_ipfs",
          "type": "bytes32"
        }
      ],
      "name": "createRatePlan",
      "outputs": [
        {
          "name": "",
          "type": "uint256"
        }
      ],
      "payable": false,
      "stateMutability": "nonpayable",
      "type": "function"
    },
    {
      "constant": true,
      "inputs": [
        {
          "name": "_vendorId",
          "type": "uint256"
        },
        {
          "name": "_rpid",
          "type": "uint256"
        },
        {
          "name": "_date",
          "type": "uint256"
        },
        {
          "name": "_token",
          "type": "uint256"
        }
      ],
      "name": "priceOfDate",
      "outputs": [
        {
          "name": "_inventory",
          "type": "uint16"
        },
        {
          "name": "_price",
          "type": "uint256"
        }
      ],
      "payable": false,
      "stateMutability": "view",
      "type": "function"
    },
    {
      "constant": true,
      "inputs": [
        {
          "name": "_vendorId",
          "type": "uint256"
        },
        {
          "name": "_rpid",
          "type": "uint256"
        },
        {
          "name": "_dates",
          "type": "uint256[]"
        },
        {
          "name": "_token",
          "type": "uint256"
        }
      ],
      "name": "pricesAndInventoriesOfDate",
      "outputs": [
        {
          "name": "",
          "type": "uint256[]"
        },
        {
          "name": "",
          "type": "uint16[]"
        }
      ],
      "payable": false,
      "stateMutability": "view",
      "type": "function"
    },
    {
      "constant": false,
      "inputs": [
        {
          "name": "_rpid",
          "type": "uint256"
        },
        {
          "name": "_name",
          "type": "string"
        },
        {
          "name": "_ipfs",
          "type": "bytes32"
        }
      ],
      "name": "modifyRatePlan",
      "outputs": [
        {
          "name": "",
          "type": "bool"
        }
      ],
      "payable": false,
      "stateMutability": "nonpayable",
      "type": "function"
    },
    {
      "constant": true,
      "inputs": [
        {
          "name": "_vendorId",
          "type": "uint256"
        },
        {
          "name": "_rpid",
          "type": "uint256"
        }
      ],
      "name": "ratePlanOfVendor",
      "outputs": [
        {
          "name": "_name",
          "type": "string"
        },
        {
          "name": "_timestamp",
          "type": "uint256"
        },
        {
          "name": "_ipfs",
          "type": "bytes32"
        }
      ],
      "payable": false,
      "stateMutability": "view",
      "type": "function"
    },
    {
      "constant": true,
      "inputs": [
        {
          "name": "_vendorId",
          "type": "uint256"
        },
        {
          "name": "_from",
          "type": "uint256"
        },
        {
          "name": "_limit",
          "type": "uint256"
        }
      ],
      "name": "ratePlansOfVendor",
      "outputs": [
        {
          "name": "",
          "type": "uint256[]"
        },
        {
          "name": "",
          "type": "uint256"
        }
      ],
      "payable": false,
      "stateMutability": "view",
      "type": "function"
    },
    {
      "constant": false,
      "inputs": [
        {
          "name": "_rpid",
          "type": "uint256"
        },
        {
          "name": "_tokens",
          "type": "uint256[]"
        },
        {
          "name": "_prices",
          "type": "uint256[]"
        },
        {
          "name": "_inventory",
          "type": "uint16"
        }
      ],
      "name": "updateBasePrice",
      "outputs": [
        {
          "name": "",
          "type": "bool"
        }
      ],
      "payable": false,
      "stateMutability": "nonpayable",
      "type": "function"
    },
    {
      "constant": true,
      "inputs": [
        {
          "name": "_vendorId",
          "type": "uint256"
        },
        {
          "name": "_rpid",
          "type": "uint256"
        },
        {
          "name": "_dates",
          "type": "uint256[]"
        },
        {
          "name": "_token",
          "type": "uint256"
        }
      ],
      "name": "pricesOfDate",
      "outputs": [
        {
          "name": "",
          "type": "uint256[]"
        }
      ],
      "payable": false,
      "stateMutability": "view",
      "type": "function"
    },
    {
      "constant": false,
      "inputs": [],
      "name": "acceptOwnership",
      "outputs": [],
      "payable": false,
      "stateMutability": "nonpayable",
      "type": "function"
    },
    {
      "constant": true,
      "inputs": [],
      "name": "owner",
      "outputs": [
        {
          "name": "",
          "type": "address"
        }
      ],
      "payable": false,
      "stateMutability": "view",
      "type": "function"
    },
    {
      "constant": false,
      "inputs": [
        {
          "name": "_rpid",
          "type": "uint256"
        },
        {
          "name": "_dates",
          "type": "uint256[]"
        },
        {
          "name": "_inventory",
          "type": "uint16"
        },
        {
          "name": "_tokens",
          "type": "uint256[]"
        },
        {
          "name": "_prices",
          "type": "uint256[]"
        }
      ],
      "name": "updatePrices",
      "outputs": [
        {
          "name": "",
          "type": "bool"
        }
      ],
      "payable": false,
      "stateMutability": "nonpayable",
      "type": "function"
    },
    {
      "constant": true,
      "inputs": [
        {
          "name": "_vendorId",
          "type": "uint256"
        },
        {
          "name": "_rpid",
          "type": "uint256"
        },
        {
          "name": "_dates",
          "type": "uint256[]"
        }
      ],
      "name": "inventoriesOfDate",
      "outputs": [
        {
          "name": "",
          "type": "uint16[]"
        }
      ],
      "payable": false,
      "stateMutability": "view",
      "type": "function"
    },
    {
      "constant": true,
      "inputs": [],
      "name": "newOwner",
      "outputs": [
        {
          "name": "",
          "type": "address"
        }
      ],
      "payable": false,
      "stateMutability": "view",
      "type": "function"
    },
    {
      "constant": false,
      "inputs": [
        {
          "name": "_rpid",
          "type": "uint256"
        }
      ],
      "name": "removeRatePlan",
      "outputs": [
        {
          "name": "",
          "type": "bool"
        }
      ],
      "payable": false,
      "stateMutability": "nonpayable",
      "type": "function"
    },
    {
      "constant": false,
      "inputs": [
        {
          "name": "_newOwner",
          "type": "address"
        }
      ],
      "name": "transferOwnership",
      "outputs": [],
      "payable": false,
      "stateMutability": "nonpayable",
      "type": "function"
    },
    {
      "constant": false,
      "inputs": [
        {
          "name": "_rpid",
          "type": "uint256"
        },
        {
          "name": "_dates",
          "type": "uint256[]"
        },
        {
          "name": "_inventory",
          "type": "uint16"
        }
      ],
      "name": "updateInventories",
      "outputs": [
        {
          "name": "",
          "type": "bool"
        }
      ],
      "payable": false,
      "stateMutability": "nonpayable",
      "type": "function"
    },
    {
      "inputs": [
        {
          "name": "_dataSource",
          "type": "address"
        }
      ],
      "payable": false,
      "stateMutability": "nonpayable",
      "type": "constructor"
    },
    {
      "anonymous": false,
      "inputs": [
        {
          "indexed": true,
          "name": "_vendor",
          "type": "address"
        },
        {
          "indexed": false,
          "name": "_name",
          "type": "string"
        },
        {
          "indexed": true,
          "name": "_ipfs",
          "type": "bytes32"
        }
      ],
      "name": "RatePlanCreated",
      "type": "event"
    },
    {
      "anonymous": false,
      "inputs": [
        {
          "indexed": true,
          "name": "_vendor",
          "type": "address"
        },
        {
          "indexed": true,
          "name": "_rpid",
          "type": "uint256"
        }
      ],
      "name": "RatePlanRemoved",
      "type": "event"
    },
    {
      "anonymous": false,
      "inputs": [
        {
          "indexed": true,
          "name": "_vendor",
          "type": "address"
        },
        {
          "indexed": true,
          "name": "_rpid",
          "type": "uint256"
        },
        {
          "indexed": false,
          "name": "name",
          "type": "string"
        },
        {
          "indexed": false,
          "name": "_ipfs",
          "type": "bytes32"
        }
      ],
      "name": "RatePlanModified",
      "type": "event"
    },
    {
      "anonymous": false,
      "inputs": [
        {
          "indexed": true,
          "name": "_rpid",
          "type": "uint256"
        }
      ],
      "name": "RatePlanPriceChanged",
      "type": "event"
    },
    {
      "anonymous": false,
      "inputs": [
        {
          "indexed": true,
          "name": "_rpid",
          "type": "uint256"
        }
      ],
      "name": "RatePlanInventoryChanged",
      "type": "event"
    },
    {
      "anonymous": false,
      "inputs": [
        {
          "indexed": true,
          "name": "_rpid",
          "type": "uint256"
        }
      ],
      "name": "RatePlanBasePriceChanged",
      "type": "event"
    },
    {
      "anonymous": false,
      "inputs": [
        {
          "indexed": true,
          "name": "from",
          "type": "address"
        },
        {
          "indexed": true,
          "name": "to",
          "type": "address"
        }
      ],
      "name": "OwnershipTransferred",
      "type": "event"
    },
    {
      "constant": false,
      "inputs": [
        {
          "name": "_dataSource",
          "type": "address"
        }
      ],
      "name": "updateDataSource",
      "outputs": [],
      "payable": false,
      "stateMutability": "nonpayable",
      "type": "function"
    },
    {
      "constant": false,
      "inputs": [],
      "name": "destroy",
      "outputs": [],
      "payable": false,
      "stateMutability": "nonpayable",
      "type": "function"
    }
  ],
  "bytecode": "0x608060405234801561001057600080fd5b50604051602080612e4c833981016040525160008054600160a060020a0319908116331790915560028054600160a060020a0390931692909116919091179055612ded8061005f6000396000f3006080604052600436106100e25763ffffffff60e060020a60003504166317a5f8cc81146100e75780631eae85cb1461011d57806321edbe241461015c57806333c6cdd314610220578063413480531461025b5780634ace9ccc146102fc5780636215f292146103755780636529d1c9146103ac57806379ba50971461042757806383197ef01461043e5780638da5cb5b146104535780638f38bf3414610484578063afab2b0f146104c8578063c588888a146104f0578063d4ee1d9014610511578063e8672de914610526578063f2fde38b1461053e578063f54d41db1461055f575b600080fd5b3480156100f357600080fd5b5061010b60246004803582810192910135903561058a565b60408051918252519081900360200190f35b34801561012957600080fd5b5061013e6004356024356044356064356108b6565b6040805161ffff909316835260208301919091528051918290030190f35b34801561016857600080fd5b5061018760048035906024803591604435918201910135606435610b02565b604051808060200180602001838103835285818151815260200191508051906020019060200280838360005b838110156101cb5781810151838201526020016101b3565b50505050905001838103825284818151815260200191508051906020019060200280838360005b8381101561020a5781810151838201526020016101f2565b5050505090500194505050505060405180910390f35b34801561022c57600080fd5b50610247600480359060248035908101910135604435610c7d565b604080519115158252519081900360200190f35b34801561026757600080fd5b50610276600435602435611199565b6040805160208082018590529181018390526060808252855190820152845190918291608083019187019080838360005b838110156102bf5781810151838201526020016102a7565b50505050905090810190601f1680156102ec5780820380516001836020036101000a031916815260200191505b5094505050505060405180910390f35b34801561030857600080fd5b5061031a6004356024356044356113a5565b6040518080602001838152602001828103825284818151815260200191508051906020019060200280838360005b83811015610360578181015183820152602001610348565b50505050905001935050505060405180910390f35b34801561038157600080fd5b5061024760048035906024803580820192908101359160443590810191013561ffff606435166115ad565b3480156103b857600080fd5b506103d7600480359060248035916044359182019101356064356119d6565b60408051602080825283518183015283519192839290830191858101910280838360005b838110156104135781810151838201526020016103fb565b505050509050019250505060405180910390f35b34801561043357600080fd5b5061043c611c88565b005b34801561044a57600080fd5b5061043c611d10565b34801561045f57600080fd5b50610468611d35565b60408051600160a060020a039092168252519081900360200190f35b34801561049057600080fd5b5061024760048035906024803580820192908101359161ffff6044351691606435808301929082013591608435918201910135611d44565b3480156104d457600080fd5b506103d760048035906024803591604435918201910135612037565b3480156104fc57600080fd5b5061043c600160a060020a03600435166122fd565b34801561051d57600080fd5b50610468612343565b34801561053257600080fd5b50610247600435612352565b34801561054a57600080fd5b5061043c600160a060020a0360043516612802565b34801561056b57600080fd5b5061024760048035906024803590810191013561ffff60443516612848565b6002546040805160e460020a630e7dd975028152336004820152905160009260609284928392600160a060020a03169163e7dd975091602480830192602092919082900301818787803b1580156105e057600080fd5b505af11580156105f4573d6000803e3d6000fd5b505050506040513d602081101561060a57600080fd5b505115156106bd57600254604080517fe65d971700000000000000000000000000000000000000000000000000000000815233602482015260006044820181905260606004830152606482018190529151600160a060020a039093169263e65d97179260a480840193602093929083900390910190829087803b15801561069057600080fd5b505af11580156106a4573d6000803e3d6000fd5b505050506040513d60208110156106ba57600080fd5b50505b86868080601f016020809104026020016040519081016040528093929190818152602001838380828437820191505050505050925060008351118015610704575060c88351105b151561070f57600080fd5b6002546040805160e460020a630e7dd9750281523360048201529051600160a060020a039092169163e7dd9750916024808201926020929091908290030181600087803b15801561075f57600080fd5b505af1158015610773573d6000803e3d6000fd5b505050506040513d602081101561078957600080fd5b50516002546040517f114616140000000000000000000000000000000000000000000000000000000081526004810183815260448201899052600060648301819052608060248401908152608484018c9052949650600160a060020a039093169363114616149387938d938d938d939260a40186868082843782019150509650505050505050602060405180830381600087803b15801561082957600080fd5b505af115801561083d573d6000803e3d6000fd5b505050506040513d602081101561085357600080fd5b50516040805160208082528101899052919250869133917f1a7199d7eed903910d73fec186e40650531a090d0698d4d8545edcc732d60fbe918b918b91908190810184848082843760405192018290039550909350505050a39695505050505050565b60008085856000600260009054906101000a9004600160a060020a0316600160a060020a03166365de1eb3846040518263ffffffff1660e060020a02815260040180828152602001915050600060405180830381600087803b15801561091b57600080fd5b505af115801561092f573d6000803e3d6000fd5b505050506040513d6000823e601f3d908101601f19168201604052608081101561095857600080fd5b81019080805164010000000081111561097057600080fd5b8201602081018481111561098357600080fd5b815164010000000081118282018710171561099d57600080fd5b50505060600151925050508015156109b457600080fd5b6002546040805160e260020a631ad96a0d02815260048101869052602481018590529051600160a060020a0390921691636b65a834916044808201926020929091908290030181600087803b158015610a0c57600080fd5b505af1158015610a20573d6000803e3d6000fd5b505050506040513d6020811015610a3657600080fd5b50511515610a4357600080fd5b600254604080517fc4725577000000000000000000000000000000000000000000000000000000008152600481018c9052602481018b9052604481018a9052606481018990529051600160a060020a039092169163c4725577916084808201926060929091908290030181600087803b158015610abf57600080fd5b505af1158015610ad3573d6000803e3d6000fd5b505050506040513d6060811015610ae957600080fd5b508051604090910151909a909950975050505050505050565b606080606080600080600089899050604051908082528060200260200182016040528015610b3a578160200160208202803883390190505b50604080518b81526020808d02820101909152909550898015610b67578160200160208202803883390190505b509350600092505b88831015610c6b57600254600160a060020a031663c47255778d8d8d8d88818110610b9657fe5b905060200201358c6040518563ffffffff1660e060020a02815260040180858152602001848152602001838152602001828152602001945050505050606060405180830381600087803b158015610bec57600080fd5b505af1158015610c00573d6000803e3d6000fd5b505050506040513d6060811015610c1657600080fd5b508051604090910151865191935091508190869085908110610c3457fe5b6020908102909101015283518290859085908110610c4e57fe5b61ffff909216602092830290910190910152600190920191610b6f565b50929a91995090975050505050505050565b6002546040805160e460020a630e7dd9750281523360048201529051600092839283928392600160a060020a03169163e7dd975091602480830192602092919082900301818787803b158015610cd257600080fd5b505af1158015610ce6573d6000803e3d6000fd5b505050506040513d6020811015610cfc57600080fd5b5051915060008211610d0d57600080fd5b6002546040805160e060020a6365de1eb3028152600481018590529051600160a060020a03909216916365de1eb39160248082019260009290919082900301818387803b158015610d5d57600080fd5b505af1158015610d71573d6000803e3d6000fd5b505050506040513d6000823e601f3d908101601f191682016040526080811015610d9a57600080fd5b810190808051640100000000811115610db257600080fd5b82016020810184811115610dc557600080fd5b8151640100000000811182820187101715610ddf57600080fd5b5050506060015192505050801515610df657600080fd5b6002546040805160e460020a630e7dd9750281523360048201529051600160a060020a039092169163e7dd9750916024808201926020929091908290030181600087803b158015610e4657600080fd5b505af1158015610e5a573d6000803e3d6000fd5b505050506040513d6020811015610e7057600080fd5b50516002546040805160e060020a6365de1eb30281526004810184905290518b92600092600160a060020a03909116916365de1eb391602480820192869290919082900301818387803b158015610ec657600080fd5b505af1158015610eda573d6000803e3d6000fd5b505050506040513d6000823e601f3d908101601f191682016040526080811015610f0357600080fd5b810190808051640100000000811115610f1b57600080fd5b82016020810184811115610f2e57600080fd5b8151640100000000811182820187101715610f4857600080fd5b5050506060015192505050801515610f5f57600080fd5b6002546040805160e260020a631ad96a0d02815260048101869052602481018590529051600160a060020a0390921691636b65a834916044808201926020929091908290030181600087803b158015610fb757600080fd5b505af1158015610fcb573d6000803e3d6000fd5b505050506040513d6020811015610fe157600080fd5b50511515610fee57600080fd5b6002546040805160e460020a630e7dd9750281523360048201529051600160a060020a039092169163e7dd9750916024808201926020929091908290030181600087803b15801561103e57600080fd5b505af1158015611052573d6000803e3d6000fd5b505050506040513d602081101561106857600080fd5b81019080805190602001909291905050509550600260009054906101000a9004600160a060020a0316600160a060020a031663074c32c4878d8d8d8d6040518663ffffffff1660e060020a02815260040180868152602001858152602001806020018360001916600019168152602001828103825285858281815260200192508082843782019150509650505050505050600060405180830381600087803b15801561111357600080fd5b505af1158015611127573d6000803e3d6000fd5b505060408051602081018c90528181529081018c90528d92503391507f808317aa9eb7f0938d449dd1ebb90ec654a4cdc840bf89eb095ce85cff14a48c908d908d908d9080606081018585808284376040519201829003965090945050505050a35060019a9950505050505050505050565b6060600080846000600260009054906101000a9004600160a060020a0316600160a060020a03166365de1eb3836040518263ffffffff1660e060020a02815260040180828152602001915050600060405180830381600087803b1580156111ff57600080fd5b505af1158015611213573d6000803e3d6000fd5b505050506040513d6000823e601f3d908101601f19168201604052608081101561123c57600080fd5b81019080805164010000000081111561125457600080fd5b8201602081018481111561126757600080fd5b815164010000000081118282018710171561128157600080fd5b505050606001519250505080151561129857600080fd5b600254604080517f762fdc0c000000000000000000000000000000000000000000000000000000008152600481018a9052602481018990529051600160a060020a039092169163762fdc0c9160448082019260009290919082900301818387803b15801561130557600080fd5b505af1158015611319573d6000803e3d6000fd5b505050506040513d6000823e601f3d908101601f19168201604052606081101561134257600080fd5b81019080805164010000000081111561135a57600080fd5b8201602081018481111561136d57600080fd5b815164010000000081118282018710171561138757600080fd5b50506020820151604090920151909b919a5098509650505050505050565b6002546040805160e060020a6365de1eb302815260048101869052905160609260009287928492600160a060020a0316916365de1eb3916024808301928692919082900301818387803b1580156113fb57600080fd5b505af115801561140f573d6000803e3d6000fd5b505050506040513d6000823e601f3d908101601f19168201604052608081101561143857600080fd5b81019080805164010000000081111561145057600080fd5b8201602081018481111561146357600080fd5b815164010000000081118282018710171561147d57600080fd5b505050606001519250505080151561149457600080fd5b600254604080517f544f43e3000000000000000000000000000000000000000000000000000000008152600481018a90526024810189905260448101889052600160648201529051600160a060020a039092169163544f43e39160848082019260009290919082900301818387803b15801561150f57600080fd5b505af1158015611523573d6000803e3d6000fd5b505050506040513d6000823e601f3d908101601f19168201604090815281101561154c57600080fd5b81019080805164010000000081111561156457600080fd5b8201602081018481111561157757600080fd5b815185602082028301116401000000008211171561159457600080fd5b5050602090910151909650945050505050935093915050565b6002546040805160e460020a630e7dd975028152336004820152905160009283928392600160a060020a039092169163e7dd97509160248082019260209290919082900301818787803b15801561160357600080fd5b505af1158015611617573d6000803e3d6000fd5b505050506040513d602081101561162d57600080fd5b50516002546040805160e060020a6365de1eb30281526004810184905290518c92600092600160a060020a03909116916365de1eb391602480820192869290919082900301818387803b15801561168357600080fd5b505af1158015611697573d6000803e3d6000fd5b505050506040513d6000823e601f3d908101601f1916820160405260808110156116c057600080fd5b8101908080516401000000008111156116d857600080fd5b820160208101848111156116eb57600080fd5b815164010000000081118282018710171561170557600080fd5b505050606001519250505080151561171c57600080fd5b6002546040805160e260020a631ad96a0d02815260048101869052602481018590529051600160a060020a0390921691636b65a834916044808201926020929091908290030181600087803b15801561177457600080fd5b505af1158015611788573d6000803e3d6000fd5b505050506040513d602081101561179e57600080fd5b505115156117ab57600080fd5b8988146117b757600080fd5b600088116117c457600080fd5b6002546040805160e460020a630e7dd9750281523360048201529051600160a060020a039092169163e7dd9750916024808201926020929091908290030181600087803b15801561181457600080fd5b505af1158015611828573d6000803e3d6000fd5b505050506040513d602081101561183e57600080fd5b81019080805190602001909291905050509450600260009054906101000a9004600160a060020a0316600160a060020a03166325635b68868e8a6040518463ffffffff1660e060020a028152600401808481526020018381526020018261ffff1661ffff1681526020019350505050600060405180830381600087803b1580156118c757600080fd5b505af11580156118db573d6000803e3d6000fd5b50505050600093505b8984101561199957600254600160a060020a031663be5e72e0868e8e8e8981811061190b57fe5b905060200201358d8d8a818110151561192057fe5b905060200201356040518563ffffffff1660e060020a02815260040180858152602001848152602001838152602001828152602001945050505050600060405180830381600087803b15801561197557600080fd5b505af1158015611989573d6000803e3d6000fd5b5050600190950194506118e49050565b6040518c907f360c63f6ccd01d11a1b3a05222d7921c3da0f941a862674b1218d974541773d490600090a25060019b9a5050505050505050505050565b60608060008088886000600260009054906101000a9004600160a060020a0316600160a060020a03166365de1eb3846040518263ffffffff1660e060020a02815260040180828152602001915050600060405180830381600087803b158015611a3e57600080fd5b505af1158015611a52573d6000803e3d6000fd5b505050506040513d6000823e601f3d908101601f191682016040526080811015611a7b57600080fd5b810190808051640100000000811115611a9357600080fd5b82016020810184811115611aa657600080fd5b8151640100000000811182820187101715611ac057600080fd5b5050506060015192505050801515611ad757600080fd5b6002546040805160e260020a631ad96a0d02815260048101869052602481018590529051600160a060020a0390921691636b65a834916044808201926020929091908290030181600087803b158015611b2f57600080fd5b505af1158015611b43573d6000803e3d6000fd5b505050506040513d6020811015611b5957600080fd5b50511515611b6657600080fd5b60008911611b7357600080fd5b604080518a81526020808c02820101909152898015611b9c578160200160208202803883390190505b509550600094505b88851015611c7857600254600160a060020a031663c47255778d8d8d8d8a818110611bcb57fe5b905060200201358c6040518563ffffffff1660e060020a02815260040180858152602001848152602001838152602001828152602001945050505050606060405180830381600087803b158015611c2157600080fd5b505af1158015611c35573d6000803e3d6000fd5b505050506040513d6060811015611c4b57600080fd5b506040015186519094508490879087908110611c6357fe5b60209081029091010152600190940193611ba4565b50939a9950505050505050505050565b600154600160a060020a03163314611c9f57600080fd5b60015460008054604051600160a060020a0393841693909116917f8be0079c531659141344cd1fd0a4f28419497f9722a3daafe3b4186f6b6457e091a3600180546000805473ffffffffffffffffffffffffffffffffffffffff19908116600160a060020a03841617909155169055565b600054600160a060020a03163314611d2757600080fd5b600054600160a060020a0316ff5b600054600160a060020a031681565b6002546040805160e460020a630e7dd97502815233600482015290516000928392600160a060020a039091169163e7dd97509160248082019260209290919082900301818787803b158015611d9857600080fd5b505af1158015611dac573d6000803e3d6000fd5b505050506040513d6020811015611dc257600080fd5b50516002546040805160e060020a6365de1eb30281526004810184905290518d92600092600160a060020a03909116916365de1eb391602480820192869290919082900301818387803b158015611e1857600080fd5b505af1158015611e2c573d6000803e3d6000fd5b505050506040513d6000823e601f3d908101601f191682016040526080811015611e5557600080fd5b810190808051640100000000811115611e6d57600080fd5b82016020810184811115611e8057600080fd5b8151640100000000811182820187101715611e9a57600080fd5b5050506060015192505050801515611eb157600080fd5b6002546040805160e260020a631ad96a0d02815260048101869052602481018590529051600160a060020a0390921691636b65a834916044808201926020929091908290030181600087803b158015611f0957600080fd5b505af1158015611f1d573d6000803e3d6000fd5b505050506040513d6020811015611f3357600080fd5b50511515611f4057600080fd5b60008b11611f4d57600080fd5b878614611f5957600080fd5b60008611611f6657600080fd5b600093505b8a841015611ff957611fee8d8d8d87818110611f8357fe5b905060200201358c8c8c808060200260200160405190810160405280939291908181526020018383602002808284378201915050505050508b8b8080602002602001604051908101604052809392919081815260200183836020028082843750612ab3945050505050565b600190930192611f6b565b6040518d907f1cac0e9cdc3d4d98e6e91fda2bf89adbc89eb42ba2b644d0a7b91b390351ab2590600090a25060019c9b505050505050505050505050565b606080600080600088886000600260009054906101000a9004600160a060020a0316600160a060020a03166365de1eb3846040518263ffffffff1660e060020a02815260040180828152602001915050600060405180830381600087803b1580156120a157600080fd5b505af11580156120b5573d6000803e3d6000fd5b505050506040513d6000823e601f3d908101601f1916820160405260808110156120de57600080fd5b8101908080516401000000008111156120f657600080fd5b8201602081018481111561210957600080fd5b815164010000000081118282018710171561212357600080fd5b505050606001519250505080151561213a57600080fd5b6002546040805160e260020a631ad96a0d02815260048101869052602481018590529051600160a060020a0390921691636b65a834916044808201926020929091908290030181600087803b15801561219257600080fd5b505af11580156121a6573d6000803e3d6000fd5b505050506040513d60208110156121bc57600080fd5b505115156121c957600080fd5b600089116121d657600080fd5b604080518a81526020808c028201019091528980156121ff578160200160208202803883390190505b509650600095505b888610156122ed5789898781811061221b57fe5b905060200201359450600260009054906101000a9004600160a060020a0316600160a060020a031663ee76c2d68d8d886040518463ffffffff1660e060020a0281526004018084815260200183815260200182815260200193505050506040805180830381600087803b15801561229157600080fd5b505af11580156122a5573d6000803e3d6000fd5b505050506040513d60408110156122bb57600080fd5b5051875190945084908890889081106122d057fe5b61ffff909216602092830290910190910152600190950194612207565b50949a9950505050505050505050565b600054600160a060020a0316331461231457600080fd5b6002805473ffffffffffffffffffffffffffffffffffffffff1916600160a060020a0392909216919091179055565b600154600160a060020a031681565b6002546040805160e460020a630e7dd9750281523360048201529051600092839283928392600160a060020a03169163e7dd975091602480830192602092919082900301818787803b1580156123a757600080fd5b505af11580156123bb573d6000803e3d6000fd5b505050506040513d60208110156123d157600080fd5b50519150600082116123e257600080fd5b6002546040805160e060020a6365de1eb3028152600481018590529051600160a060020a03909216916365de1eb39160248082019260009290919082900301818387803b15801561243257600080fd5b505af1158015612446573d6000803e3d6000fd5b505050506040513d6000823e601f3d908101601f19168201604052608081101561246f57600080fd5b81019080805164010000000081111561248757600080fd5b8201602081018481111561249a57600080fd5b81516401000000008111828201871017156124b457600080fd5b50505060600151925050508015156124cb57600080fd5b6002546040805160e460020a630e7dd9750281523360048201529051600160a060020a039092169163e7dd9750916024808201926020929091908290030181600087803b15801561251b57600080fd5b505af115801561252f573d6000803e3d6000fd5b505050506040513d602081101561254557600080fd5b50516002546040805160e060020a6365de1eb30281526004810184905290518892600092600160a060020a03909116916365de1eb391602480820192869290919082900301818387803b15801561259b57600080fd5b505af11580156125af573d6000803e3d6000fd5b505050506040513d6000823e601f3d908101601f1916820160405260808110156125d857600080fd5b8101908080516401000000008111156125f057600080fd5b8201602081018481111561260357600080fd5b815164010000000081118282018710171561261d57600080fd5b505050606001519250505080151561263457600080fd5b6002546040805160e260020a631ad96a0d02815260048101869052602481018590529051600160a060020a0390921691636b65a834916044808201926020929091908290030181600087803b15801561268c57600080fd5b505af11580156126a0573d6000803e3d6000fd5b505050506040513d60208110156126b657600080fd5b505115156126c357600080fd5b6002546040805160e460020a630e7dd9750281523360048201529051600160a060020a039092169163e7dd9750916024808201926020929091908290030181600087803b15801561271357600080fd5b505af1158015612727573d6000803e3d6000fd5b505050506040513d602081101561273d57600080fd5b5051600254604080517f786e479900000000000000000000000000000000000000000000000000000000815260048101849052602481018c90529051929850600160a060020a039091169163786e47999160448082019260009290919082900301818387803b1580156127af57600080fd5b505af11580156127c3573d6000803e3d6000fd5b50506040518a92503391507fc8637ab25619c69fd066be8eba8adcf7e550f47deb35e9e3c02574fa0fa716d890600090a3506001979650505050505050565b600054600160a060020a0316331461281957600080fd5b6001805473ffffffffffffffffffffffffffffffffffffffff1916600160a060020a0392909216919091179055565b6002546040805160e460020a630e7dd97502815233600482015290516000928392600160a060020a039091169163e7dd97509160248082019260209290919082900301818787803b15801561289c57600080fd5b505af11580156128b0573d6000803e3d6000fd5b505050506040513d60208110156128c657600080fd5b50516002546040805160e060020a6365de1eb30281526004810184905290518992600092600160a060020a03909116916365de1eb391602480820192869290919082900301818387803b15801561291c57600080fd5b505af1158015612930573d6000803e3d6000fd5b505050506040513d6000823e601f3d908101601f19168201604052608081101561295957600080fd5b81019080805164010000000081111561297157600080fd5b8201602081018481111561298457600080fd5b815164010000000081118282018710171561299e57600080fd5b50505060600151925050508015156129b557600080fd5b6002546040805160e260020a631ad96a0d02815260048101869052602481018590529051600160a060020a0390921691636b65a834916044808201926020929091908290030181600087803b158015612a0d57600080fd5b505af1158015612a21573d6000803e3d6000fd5b505050506040513d6020811015612a3757600080fd5b50511515612a4457600080fd5b600093505b86841015612a7957612a6e89898987818110612a6157fe5b9050602002013588612ca7565b600190930192612a49565b60405189907fd6a2898743d11912ae34b9e44c23aef05d6bb87b12f6550fafa5890231d569e790600090a250600198975050505050505050565b6002546040805160e460020a630e7dd97502815233600482015290516000928392600160a060020a039091169163e7dd97509160248082019260209290919082900301818787803b158015612b0757600080fd5b505af1158015612b1b573d6000803e3d6000fd5b505050506040513d6020811015612b3157600080fd5b5051600254604080517ff3c505c200000000000000000000000000000000000000000000000000000000815260048101849052602481018b9052604481018a905261ffff891660648201529051929450600160a060020a039091169163f3c505c29160848082019260009290919082900301818387803b158015612bb457600080fd5b505af1158015612bc8573d6000803e3d6000fd5b50505050600090505b8351811015612c9e576002548451600160a060020a039091169063edb0bb3a9084908a908a90899087908110612c0357fe5b906020019060200201518887815181101515612c1b57fe5b906020019060200201516040518663ffffffff1660e060020a0281526004018086815260200185815260200184815260200183815260200182815260200195505050505050600060405180830381600087803b158015612c7a57600080fd5b505af1158015612c8e573d6000803e3d6000fd5b505060019092019150612bd19050565b50505050505050565b6002546040805160e460020a630e7dd9750281523360048201529051600092600160a060020a03169163e7dd975091602480830192602092919082900301818787803b158015612cf657600080fd5b505af1158015612d0a573d6000803e3d6000fd5b505050506040513d6020811015612d2057600080fd5b5051600254604080517ff3c505c200000000000000000000000000000000000000000000000000000000815260048101849052602481018890526044810187905261ffff861660648201529051929350600160a060020a039091169163f3c505c29160848082019260009290919082900301818387803b158015612da357600080fd5b505af1158015612db7573d6000803e3d6000fd5b50505050505050505600a165627a7a7230582030738d26b94e27e35ee26b4fbbe4ca22d4692fe426d9c45d9ec99f4978d968780029",
  "source": "pragma solidity ^0.4.24;\n\nimport \"./extensions/TRNPrices.sol\";\nimport \"./extensions/TRNRatePlans.sol\";\n\ncontract TripioRoomNightVendor is TRNPrices, TRNRatePlans {\n    /**\n     * Constructor\n     */\n    constructor(address _dataSource) public {\n        // Init the data source\n        dataSource = TripioRoomNightData(_dataSource);\n    }\n\n    /**\n     * @dev Update the data source\n     */\n    function updateDataSource(address _dataSource) external onlyOwner {\n        // Update the data source\n        dataSource = TripioRoomNightData(_dataSource);\n    }\n    \n    /**\n     * @dev Destory the contract\n     */\n    function destroy() external onlyOwner {\n        selfdestruct(owner);\n    }\n}",
  "sourcePath": "/Users/Kirn/Documents/Workspace/Trip.io/tripio-tron/tronbox/contracts/TripioRoomNightVendor.sol",
  "compiler": {
    "name": "solc",
    "version": "0.4.24+commit.e67f0147.Emscripten.clang"
  },
  "schemaVersion": "2.0.1",
  "updatedAt": "2018-11-24T04:36:24.960Z"
}