{
  "contractName": "TripioCandies",
  "abi": [
    {
      "inputs": [
        {
          "name": "_trio",
          "type": "address"
        }
      ],
      "payable": false,
      "stateMutability": "nonpayable",
      "type": "constructor"
    },
    {
      "constant": false,
      "inputs": [],
      "name": "withdraw",
      "outputs": [],
      "payable": false,
      "stateMutability": "nonpayable",
      "type": "function"
    },
    {
      "constant": false,
      "inputs": [],
      "name": "getTRIOs",
      "outputs": [],
      "payable": false,
      "stateMutability": "nonpayable",
      "type": "function"
    }
  ],
  "bytecode": "0x608060405234801561001057600080fd5b506040516020806103e0833981016040525160008054600160a060020a03909216600160a060020a031992831617905560018054909116331790556103868061005a6000396000f30060806040526004361061004b5763ffffffff7c01000000000000000000000000000000000000000000000000000000006000350416633ccfd60b811461005057806390fcf55114610067575b600080fd5b34801561005c57600080fd5b5061006561007c565b005b34801561007357600080fd5b506100656101f7565b600154600090819073ffffffffffffffffffffffffffffffffffffffff1633146100a557600080fd5b60008054604080517f70a08231000000000000000000000000000000000000000000000000000000008152306004820152905173ffffffffffffffffffffffffffffffffffffffff909216945084926370a08231926024808401936020939083900390910190829087803b15801561011c57600080fd5b505af1158015610130573d6000803e3d6000fd5b505050506040513d602081101561014657600080fd5b5051600154604080517fa9059cbb00000000000000000000000000000000000000000000000000000000815273ffffffffffffffffffffffffffffffffffffffff92831660048201526024810184905290519293509084169163a9059cbb916044808201926020929091908290030181600087803b1580156101c757600080fd5b505af11580156101db573d6000803e3d6000fd5b505050506040513d60208110156101f157600080fd5b50505050565b60008054604080517f70a08231000000000000000000000000000000000000000000000000000000008152336004820152905173ffffffffffffffffffffffffffffffffffffffff90921692678ac7230489e800009284926370a082319260248083019360209390929083900390910190829087803b15801561027957600080fd5b505af115801561028d573d6000803e3d6000fd5b505050506040513d60208110156102a357600080fd5b5051106102af57600080fd5b604080517fa9059cbb000000000000000000000000000000000000000000000000000000008152336004820152678ac7230489e800006024820152905173ffffffffffffffffffffffffffffffffffffffff83169163a9059cbb9160448083019260209291908290030181600087803b15801561032b57600080fd5b505af115801561033f573d6000803e3d6000fd5b505050506040513d602081101561035557600080fd5b5050505600a165627a7a72305820281066d625104ab035b4ddf195f80bb55b3054fc9ffce476adf856f47393b4930029",
  "source": "pragma solidity ^0.4.24;\nimport \"./extensions/TripioToken.sol\";\n\ncontract TripioCandies {\n    address trio;\n    address owner;\n    /**\n     * Constructor\n     */\n    constructor(address _trio) public {\n        // Init the data source\n        trio = _trio;\n        owner = msg.sender;\n    }\n\n    function withdraw() public {\n        require(msg.sender == owner);\n        TripioToken tripio = TripioToken(trio);\n        uint256 tokens = tripio.balanceOf(address(this));\n        tripio.transfer(owner, tokens);\n    }\n\n    function getTRIOs() public {\n        TripioToken tripio = TripioToken(trio);\n        require(tripio.balanceOf(msg.sender) < 10000000000000000000);\n        tripio.transfer(msg.sender, 10000000000000000000);\n    }\n}",
  "sourcePath": "/Users/Kirn/Documents/Workspace/Trip.io/tripio-tron/tronbox/contracts/TripioCandies.sol",
  "compiler": {
    "name": "solc",
    "version": "0.4.24+commit.e67f0147.Emscripten.clang"
  },
  "schemaVersion": "2.0.1",
  "updatedAt": "2018-11-24T04:36:24.956Z"
}