{
  "contractName": "TripioRoomNightCustomer",
  "abi": [
    {
      "constant": true,
      "inputs": [
        {
          "name": "interfaceID",
          "type": "bytes4"
        }
      ],
      "name": "supportsInterface",
      "outputs": [
        {
          "name": "",
          "type": "bool"
        }
      ],
      "payable": false,
      "stateMutability": "view",
      "type": "function"
    },
    {
      "constant": true,
      "inputs": [],
      "name": "name",
      "outputs": [
        {
          "name": "_name",
          "type": "string"
        }
      ],
      "payable": false,
      "stateMutability": "pure",
      "type": "function"
    },
    {
      "constant": true,
      "inputs": [
        {
          "name": "_tokenId",
          "type": "uint256"
        }
      ],
      "name": "getApproved",
      "outputs": [
        {
          "name": "",
          "type": "address"
        }
      ],
      "payable": false,
      "stateMutability": "view",
      "type": "function"
    },
    {
      "constant": false,
      "inputs": [
        {
          "name": "_approved",
          "type": "address"
        },
        {
          "name": "_tokenId",
          "type": "uint256"
        }
      ],
      "name": "approve",
      "outputs": [],
      "payable": true,
      "stateMutability": "payable",
      "type": "function"
    },
    {
      "constant": false,
      "inputs": [
        {
          "name": "_from",
          "type": "address"
        },
        {
          "name": "_to",
          "type": "address"
        },
        {
          "name": "_tokenIds",
          "type": "uint256[]"
        }
      ],
      "name": "transferFromInBatch",
      "outputs": [],
      "payable": true,
      "stateMutability": "payable",
      "type": "function"
    },
    {
      "constant": false,
      "inputs": [
        {
          "name": "_from",
          "type": "address"
        },
        {
          "name": "_to",
          "type": "address"
        },
        {
          "name": "_tokenId",
          "type": "uint256"
        }
      ],
      "name": "transferFrom",
      "outputs": [],
      "payable": true,
      "stateMutability": "payable",
      "type": "function"
    },
    {
      "constant": false,
      "inputs": [
        {
          "name": "_rnid",
          "type": "uint256"
        }
      ],
      "name": "refund",
      "outputs": [
        {
          "name": "",
          "type": "bool"
        }
      ],
      "payable": true,
      "stateMutability": "payable",
      "type": "function"
    },
    {
      "constant": false,
      "inputs": [
        {
          "name": "_from",
          "type": "address"
        },
        {
          "name": "_to",
          "type": "address"
        },
        {
          "name": "_tokenId",
          "type": "uint256"
        }
      ],
      "name": "safeTransferFrom",
      "outputs": [],
      "payable": true,
      "stateMutability": "payable",
      "type": "function"
    },
    {
      "constant": true,
      "inputs": [
        {
          "name": "_rnid",
          "type": "uint256"
        }
      ],
      "name": "isRefundApplied",
      "outputs": [
        {
          "name": "",
          "type": "bool"
        }
      ],
      "payable": false,
      "stateMutability": "view",
      "type": "function"
    },
    {
      "constant": true,
      "inputs": [
        {
          "name": "_rnid",
          "type": "uint256"
        }
      ],
      "name": "roomNight",
      "outputs": [
        {
          "name": "_vendorId",
          "type": "uint256"
        },
        {
          "name": "_rpid",
          "type": "uint256"
        },
        {
          "name": "_token",
          "type": "uint256"
        },
        {
          "name": "_price",
          "type": "uint256"
        },
        {
          "name": "_timestamp",
          "type": "uint256"
        },
        {
          "name": "_date",
          "type": "uint256"
        },
        {
          "name": "_ipfs",
          "type": "bytes32"
        },
        {
          "name": "_name",
          "type": "string"
        }
      ],
      "payable": false,
      "stateMutability": "view",
      "type": "function"
    },
    {
      "constant": true,
      "inputs": [
        {
          "name": "_tokenId",
          "type": "uint256"
        }
      ],
      "name": "ownerOf",
      "outputs": [
        {
          "name": "",
          "type": "address"
        }
      ],
      "payable": false,
      "stateMutability": "view",
      "type": "function"
    },
    {
      "constant": true,
      "inputs": [
        {
          "name": "_owner",
          "type": "address"
        }
      ],
      "name": "balanceOf",
      "outputs": [
        {
          "name": "",
          "type": "uint256"
        }
      ],
      "payable": false,
      "stateMutability": "view",
      "type": "function"
    },
    {
      "constant": false,
      "inputs": [],
      "name": "acceptOwnership",
      "outputs": [],
      "payable": false,
      "stateMutability": "nonpayable",
      "type": "function"
    },
    {
      "constant": true,
      "inputs": [
        {
          "name": "_from",
          "type": "uint256"
        },
        {
          "name": "_limit",
          "type": "uint256"
        },
        {
          "name": "_isVendor",
          "type": "bool"
        }
      ],
      "name": "roomNightsOfOwner",
      "outputs": [
        {
          "name": "",
          "type": "uint256[]"
        },
        {
          "name": "",
          "type": "uint256"
        }
      ],
      "payable": false,
      "stateMutability": "view",
      "type": "function"
    },
    {
      "constant": true,
      "inputs": [],
      "name": "owner",
      "outputs": [
        {
          "name": "",
          "type": "address"
        }
      ],
      "payable": false,
      "stateMutability": "view",
      "type": "function"
    },
    {
      "constant": true,
      "inputs": [],
      "name": "symbol",
      "outputs": [
        {
          "name": "_symbol",
          "type": "string"
        }
      ],
      "payable": false,
      "stateMutability": "pure",
      "type": "function"
    },
    {
      "constant": false,
      "inputs": [
        {
          "name": "_operator",
          "type": "address"
        },
        {
          "name": "_approved",
          "type": "bool"
        }
      ],
      "name": "setApprovalForAll",
      "outputs": [],
      "payable": false,
      "stateMutability": "nonpayable",
      "type": "function"
    },
    {
      "constant": false,
      "inputs": [
        {
          "name": "_rnid",
          "type": "uint256"
        },
        {
          "name": "_isRefund",
          "type": "bool"
        }
      ],
      "name": "applyRefund",
      "outputs": [
        {
          "name": "",
          "type": "bool"
        }
      ],
      "payable": false,
      "stateMutability": "nonpayable",
      "type": "function"
    },
    {
      "constant": false,
      "inputs": [
        {
          "name": "_from",
          "type": "address"
        },
        {
          "name": "_to",
          "type": "address"
        },
        {
          "name": "_tokenId",
          "type": "uint256"
        },
        {
          "name": "_data",
          "type": "bytes"
        }
      ],
      "name": "safeTransferFrom",
      "outputs": [],
      "payable": true,
      "stateMutability": "payable",
      "type": "function"
    },
    {
      "constant": true,
      "inputs": [
        {
          "name": "_tokenId",
          "type": "uint256"
        }
      ],
      "name": "tokenURI",
      "outputs": [
        {
          "name": "",
          "type": "string"
        }
      ],
      "payable": false,
      "stateMutability": "view",
      "type": "function"
    },
    {
      "constant": true,
      "inputs": [],
      "name": "newOwner",
      "outputs": [
        {
          "name": "",
          "type": "address"
        }
      ],
      "payable": false,
      "stateMutability": "view",
      "type": "function"
    },
    {
      "constant": false,
      "inputs": [
        {
          "name": "_vendorId",
          "type": "uint256"
        },
        {
          "name": "_rpid",
          "type": "uint256"
        },
        {
          "name": "_dates",
          "type": "uint256[]"
        },
        {
          "name": "_token",
          "type": "uint256"
        }
      ],
      "name": "buyInBatch",
      "outputs": [
        {
          "name": "",
          "type": "bool"
        }
      ],
      "payable": true,
      "stateMutability": "payable",
      "type": "function"
    },
    {
      "constant": true,
      "inputs": [
        {
          "name": "_owner",
          "type": "address"
        },
        {
          "name": "_operator",
          "type": "address"
        }
      ],
      "name": "isApprovedForAll",
      "outputs": [
        {
          "name": "",
          "type": "bool"
        }
      ],
      "payable": false,
      "stateMutability": "view",
      "type": "function"
    },
    {
      "constant": false,
      "inputs": [
        {
          "name": "_newOwner",
          "type": "address"
        }
      ],
      "name": "transferOwnership",
      "outputs": [],
      "payable": false,
      "stateMutability": "nonpayable",
      "type": "function"
    },
    {
      "inputs": [
        {
          "name": "_dataSource",
          "type": "address"
        }
      ],
      "payable": false,
      "stateMutability": "nonpayable",
      "type": "constructor"
    },
    {
      "payable": true,
      "stateMutability": "payable",
      "type": "fallback"
    },
    {
      "anonymous": false,
      "inputs": [
        {
          "indexed": true,
          "name": "_customer",
          "type": "address"
        },
        {
          "indexed": true,
          "name": "_vendor",
          "type": "address"
        },
        {
          "indexed": true,
          "name": "_rpid",
          "type": "uint256"
        },
        {
          "indexed": false,
          "name": "_dates",
          "type": "uint256[]"
        },
        {
          "indexed": false,
          "name": "_token",
          "type": "uint256"
        }
      ],
      "name": "BuyInBatch",
      "type": "event"
    },
    {
      "anonymous": false,
      "inputs": [
        {
          "indexed": false,
          "name": "_customer",
          "type": "address"
        },
        {
          "indexed": true,
          "name": "_rnid",
          "type": "uint256"
        },
        {
          "indexed": false,
          "name": "_isRefund",
          "type": "bool"
        }
      ],
      "name": "ApplyRefund",
      "type": "event"
    },
    {
      "anonymous": false,
      "inputs": [
        {
          "indexed": false,
          "name": "_vendor",
          "type": "address"
        },
        {
          "indexed": false,
          "name": "_rnid",
          "type": "uint256"
        }
      ],
      "name": "Refund",
      "type": "event"
    },
    {
      "anonymous": false,
      "inputs": [
        {
          "indexed": true,
          "name": "_from",
          "type": "address"
        },
        {
          "indexed": true,
          "name": "_to",
          "type": "address"
        },
        {
          "indexed": false,
          "name": "_tokenId",
          "type": "uint256"
        }
      ],
      "name": "Transfer",
      "type": "event"
    },
    {
      "anonymous": false,
      "inputs": [
        {
          "indexed": true,
          "name": "_owner",
          "type": "address"
        },
        {
          "indexed": true,
          "name": "_approved",
          "type": "address"
        },
        {
          "indexed": false,
          "name": "_tokenId",
          "type": "uint256"
        }
      ],
      "name": "Approval",
      "type": "event"
    },
    {
      "anonymous": false,
      "inputs": [
        {
          "indexed": true,
          "name": "_owner",
          "type": "address"
        },
        {
          "indexed": true,
          "name": "_operator",
          "type": "address"
        },
        {
          "indexed": false,
          "name": "_approved",
          "type": "bool"
        }
      ],
      "name": "ApprovalForAll",
      "type": "event"
    },
    {
      "anonymous": false,
      "inputs": [
        {
          "indexed": true,
          "name": "from",
          "type": "address"
        },
        {
          "indexed": true,
          "name": "to",
          "type": "address"
        }
      ],
      "name": "OwnershipTransferred",
      "type": "event"
    },
    {
      "constant": false,
      "inputs": [
        {
          "name": "_dataSource",
          "type": "address"
        }
      ],
      "name": "updateDataSource",
      "outputs": [],
      "payable": false,
      "stateMutability": "nonpayable",
      "type": "function"
    },
    {
      "constant": false,
      "inputs": [],
      "name": "withdrawBalance",
      "outputs": [],
      "payable": false,
      "stateMutability": "nonpayable",
      "type": "function"
    },
    {
      "constant": false,
      "inputs": [
        {
          "name": "_token",
          "type": "uint256"
        }
      ],
      "name": "withdrawTokenId",
      "outputs": [],
      "payable": false,
      "stateMutability": "nonpayable",
      "type": "function"
    },
    {
      "constant": false,
      "inputs": [
        {
          "name": "_tokenAddress",
          "type": "address"
        }
      ],
      "name": "withdrawToken",
      "outputs": [],
      "payable": false,
      "stateMutability": "nonpayable",
      "type": "function"
    },
    {
      "constant": false,
      "inputs": [],
      "name": "destroy",
      "outputs": [],
      "payable": false,
      "stateMutability": "nonpayable",
      "type": "function"
    }
  ],
  "bytecode": "0x608060405234801561001057600080fd5b5060405160208061494e833981016040525160008054600160a060020a0319908116331790915560028054600160a060020a03909316929091169190911790556148ef8061005f6000396000f30060806040526004361061015b5763ffffffff60e060020a60003504166301ffc9a7811461015d57806306fdde0314610193578063081812fc1461021d578063095ea7b31461025157806311a767291461026857806323b872dd14610290578063278ecde1146102ad57806342842e0e146102b85780635fd8c710146102d5578063612ef6e9146102ea578063628c225c146103025780636352211e146103cb57806370a08231146103e357806379ba50971461041657806383197ef01461042b5780638947606914610440578063899f107d146104615780638da5cb5b146104dc57806395d89b41146104f1578063a22cb46514610506578063b08e0d3e1461052c578063b88d4fde14610549578063bb6ad6ef14610575578063c588888a1461058d578063c87b56dd146105ae578063d4ee1d90146105c6578063dfd17f2b146105db578063e985e9c5146105f9578063f2fde38b14610620575b005b34801561016957600080fd5b5061017f600160e060020a031960043516610641565b604080519115158252519081900360200190f35b34801561019f57600080fd5b506101a8610821565b6040805160208082528351818301528351919283929083019185019080838360005b838110156101e25781810151838201526020016101ca565b50505050905090810190601f16801561020f5780820380516001836020036101000a031916815260200191505b509250505060405180910390f35b34801561022957600080fd5b50610235600435610858565b60408051600160a060020a039092168252519081900360200190f35b61015b600160a060020a036004351660243561097b565b61015b600160a060020a03600480358216916024803590911691604435918201910135610c93565b61015b600160a060020a03600435811690602435166044356110c3565b61017f6004356113e7565b61015b600160a060020a0360043581169060243516604435611a04565b3480156102e157600080fd5b5061015b611a25565b3480156102f657600080fd5b5061017f600435611a7a565b34801561030e57600080fd5b5061031a600435611bea565b60405180898152602001888152602001878152602001868152602001858152602001848152602001836000191660001916815260200180602001828103825283818151815260200191508051906020019080838360005b83811015610389578181015183820152602001610371565b50505050905090810190601f1680156103b65780820380516001836020036101000a031916815260200191505b50995050505050505050505060405180910390f35b3480156103d757600080fd5b50610235600435611de8565b3480156103ef57600080fd5b50610404600160a060020a0360043516611e79565b60408051918252519081900360200190f35b34801561042257600080fd5b5061015b611ef8565b34801561043757600080fd5b5061015b611f80565b34801561044c57600080fd5b5061015b600160a060020a0360043516611fa5565b34801561046d57600080fd5b5061048160043560243560443515156120f4565b6040518080602001838152602001828103825284818151815260200191508051906020019060200280838360005b838110156104c75781810151838201526020016104af565b50505050905001935050505060405180910390f35b3480156104e857600080fd5b50610235612294565b3480156104fd57600080fd5b506101a86122a3565b34801561051257600080fd5b5061015b600160a060020a036004351660243515156122da565b34801561053857600080fd5b5061017f60043560243515156123c2565b61015b600160a060020a03600480358216916024803590911691604435916064359081019101356126fd565b34801561058157600080fd5b5061015b600435612739565b34801561059957600080fd5b5061015b600160a060020a036004351661284b565b3480156105ba57600080fd5b506101a8600435612891565b3480156105d257600080fd5b50610235612ba1565b61017f60048035906024803591604435918201910135606435612bb0565b34801561060557600080fd5b5061017f600160a060020a0360043581169060243516612fc1565b34801561062c57600080fd5b5061015b600160a060020a036004351661301e565b600254604080517f5e0f9e060000000000000000000000000000000000000000000000000000000081529051600092600160a060020a031691635e0f9e0691600480830192602092919082900301818787803b1580156106a057600080fd5b505af11580156106b4573d6000803e3d6000fd5b505050506040513d60208110156106ca57600080fd5b5051600160e060020a0319838116911614806107705750600260009054906101000a9004600160a060020a0316600160a060020a031663c1752ef16040518163ffffffff1660e060020a028152600401602060405180830381600087803b15801561073457600080fd5b505af1158015610748573d6000803e3d6000fd5b505050506040513d602081101561075e57600080fd5b5051600160e060020a03198381169116145b806108055750600260009054906101000a9004600160a060020a0316600160a060020a0316633f2e681c6040518163ffffffff1660e060020a028152600401602060405180830381600087803b1580156107c957600080fd5b505af11580156107dd573d6000803e3d6000fd5b505050506040513d60208110156107f357600080fd5b5051600160e060020a03198381169116145b801561081b5750600160e060020a031980831614155b92915050565b60408051808201909152601181527f54726970696f20526f6f6d204e69676874000000000000000000000000000000602082015290565b60008181811161086757600080fd5b6002546040805160e060020a63e7f95c45028152600481018490529051600092600160a060020a03169163e7f95c4591602480830192602092919082900301818787803b1580156108b757600080fd5b505af11580156108cb573d6000803e3d6000fd5b505050506040513d60208110156108e157600080fd5b5051600160a060020a031614156108f757600080fd5b6002546040805160e160020a632376fe85028152600481018690529051600160a060020a03909216916346edfd0a916024808201926020929091908290030181600087803b15801561094857600080fd5b505af115801561095c573d6000803e3d6000fd5b505050506040513d602081101561097257600080fd5b50519392505050565b60008181811161098a57600080fd5b6002546040805160e060020a63e7f95c45028152600481018490529051600092600160a060020a03169163e7f95c4591602480830192602092919082900301818787803b1580156109da57600080fd5b505af11580156109ee573d6000803e3d6000fd5b505050506040513d6020811015610a0457600080fd5b5051600160a060020a03161415610a1a57600080fd5b6002546040805160e060020a63e7f95c45028152600481018690529051859260009283928392600160a060020a03169163e7f95c4591602480830192602092919082900301818787803b158015610a7057600080fd5b505af1158015610a84573d6000803e3d6000fd5b505050506040513d6020811015610a9a57600080fd5b50516002546040805160e260020a6303657815028152600160a060020a038085166004830181905233602484018190529351959850929092149550911691630d95e054916044808201926020929091908290030181600087803b158015610b0057600080fd5b505af1158015610b14573d6000803e3d6000fd5b505050506040513d6020811015610b2a57600080fd5b505190508180610b375750805b1515610b4257600080fd5b6002546040805160e060020a63e7f95c45028152600481018a90529051600160a060020a039092169163e7f95c45916024808201926020929091908290030181600087803b158015610b9357600080fd5b505af1158015610ba7573d6000803e3d6000fd5b505050506040513d6020811015610bbd57600080fd5b5051600254604080517f6a385043000000000000000000000000000000000000000000000000000000008152600481018b9052600160a060020a038c811660248301529151939950911691636a3850439160448082019260009290919082900301818387803b158015610c2f57600080fd5b505af1158015610c43573d6000803e3d6000fd5b5050604080518a81529051600160a060020a03808d1694508a1692507f8c5be1e5ebec7d5bd14f71427d1e84f3dd0314c0f7b2291e5b200ac8c7c3b9259181900360200190a35050505050505050565b6000808383808060200260200160405190810160405280939291908181526020018383602002808284375060009450505050505b8151811015610da35760008282815181101515610ce057fe5b6020908102909101015111610cf457600080fd5b6002548251600091600160a060020a03169063e7f95c4590859085908110610d1857fe5b906020019060200201516040518263ffffffff1660e060020a02815260040180828152602001915050602060405180830381600087803b158015610d5b57600080fd5b505af1158015610d6f573d6000803e3d6000fd5b505050506040513d6020811015610d8557600080fd5b5051600160a060020a03161415610d9b57600080fd5b600101610cc7565b85858080602002602001604051908101604052809392919081815260200183836020028082843750600094508493508392508291508190505b8551851015610fc7576002548651600160a060020a039091169063e7f95c4590889088908110610e0857fe5b906020019060200201516040518263ffffffff1660e060020a02815260040180828152602001915050602060405180830381600087803b158015610e4b57600080fd5b505af1158015610e5f573d6000803e3d6000fd5b505050506040513d6020811015610e7557600080fd5b50516002548751919550600160a060020a038087163314955016906346edfd0a90889088908110610ea257fe5b906020019060200201516040518263ffffffff1660e060020a02815260040180828152602001915050602060405180830381600087803b158015610ee557600080fd5b505af1158015610ef9573d6000803e3d6000fd5b505050506040513d6020811015610f0f57600080fd5b50516002546040805160e260020a6303657815028152600160a060020a038881166004830152336024830181905292519481169092149550911691630d95e054916044808201926020929091908290030181600087803b158015610f7257600080fd5b505af1158015610f86573d6000803e3d6000fd5b505050506040513d6020811015610f9c57600080fd5b505190508280610fa95750815b80610fb15750805b1515610fbc57600080fd5b600190940193610ddc565b600099505b8a8a10156110b357600254600160a060020a031663e7f95c458d8d8d818110610ff157fe5b905060200201356040518263ffffffff1660e060020a02815260040180828152602001915050602060405180830381600087803b15801561103157600080fd5b505af1158015611045573d6000803e3d6000fd5b505050506040513d602081101561105b57600080fd5b50519850600160a060020a03808a16908f161461107757600080fd5b600160a060020a038d16151561108c57600080fd5b6110a88c8c8c81811061109b57fe5b905060200201358e613064565b600190990198610fcc565b5050505050505050505050505050565b6000818181116110d257600080fd5b6002546040805160e060020a63e7f95c45028152600481018490529051600092600160a060020a03169163e7f95c4591602480830192602092919082900301818787803b15801561112257600080fd5b505af1158015611136573d6000803e3d6000fd5b505050506040513d602081101561114c57600080fd5b5051600160a060020a0316141561116257600080fd5b82600080600080600260009054906101000a9004600160a060020a0316600160a060020a031663e7f95c45866040518263ffffffff1660e060020a02815260040180828152602001915050602060405180830381600087803b1580156111c757600080fd5b505af11580156111db573d6000803e3d6000fd5b505050506040513d60208110156111f157600080fd5b50516002546040805160e160020a632376fe85028152600481018990529051929650600160a060020a0380881633149650909116916346edfd0a916024808201926020929091908290030181600087803b15801561124e57600080fd5b505af1158015611262573d6000803e3d6000fd5b505050506040513d602081101561127857600080fd5b50516002546040805160e260020a6303657815028152600160a060020a038881166004830152336024830181905292519481169092149550911691630d95e054916044808201926020929091908290030181600087803b1580156112db57600080fd5b505af11580156112ef573d6000803e3d6000fd5b505050506040513d602081101561130557600080fd5b5051905082806113125750815b8061131a5750805b151561132557600080fd5b6002546040805160e060020a63e7f95c45028152600481018b90529051600160a060020a039092169163e7f95c45916024808201926020929091908290030181600087803b15801561137657600080fd5b505af115801561138a573d6000803e3d6000fd5b505050506040513d60208110156113a057600080fd5b50519650600160a060020a03808816908b16146113bc57600080fd5b600160a060020a03891615156113d157600080fd5b6113db888a613064565b50505050505050505050565b60008080808080808080808a8181116113ff57600080fd5b6002546040805160e060020a63e7f95c45028152600481018490529051600092600160a060020a03169163e7f95c4591602480830192602092919082900301818787803b15801561144f57600080fd5b505af1158015611463573d6000803e3d6000fd5b505050506040513d602081101561147957600080fd5b5051600160a060020a0316141561148f57600080fd5b6002546040805160e060020a63e7f95c45028152600481018f90529051600160a060020a03909216916330c7090391839163e7f95c45916024808201926020929091908290030181600087803b1580156114e857600080fd5b505af11580156114fc573d6000803e3d6000fd5b505050506040513d602081101561151257600080fd5b81019080805190602001909291905050508e6040518363ffffffff1660e060020a0281526004018083600160a060020a0316600160a060020a0316815260200182815260200192505050602060405180830381600087803b15801561157657600080fd5b505af115801561158a573d6000803e3d6000fd5b505050506040513d60208110156115a057600080fd5b505115156115ad57600080fd5b600254604080517f3bdf5878000000000000000000000000000000000000000000000000000000008152600481018f90529051600160a060020a0390921691633bdf58789160248082019260e0929091908290030181600087803b15801561161457600080fd5b505af1158015611628573d6000803e3d6000fd5b505050506040513d60e081101561163e57600080fd5b8101908080519060200190929190805190602001909291908051906020019092919080519060200190929190805190602001909291908051906020019092919080519060200190929190505050509a50509950995099509950600260009054906101000a9004600160a060020a0316600160a060020a03166365de1eb38b6040518263ffffffff1660e060020a02815260040180828152602001915050600060405180830381600087803b1580156116f557600080fd5b505af1158015611709573d6000803e3d6000fd5b505050506040513d6000823e601f3d908101601f19168201604052608081101561173257600080fd5b81019080805164010000000081111561174a57600080fd5b8201602081018481111561175d57600080fd5b815164010000000081118282018710171561177757600080fd5b5050506020015196505050600160a060020a038516331461179757600080fd5b6002546040805160e060020a63e7f95c45028152600481018f90529051600160a060020a039092169163e7f95c45916024808201926020929091908290030181600087803b1580156117e857600080fd5b505af11580156117fc573d6000803e3d6000fd5b505050506040513d602081101561181257600080fd5b50519350871515611869578692503483111561182d57600080fd5b604051600160a060020a0385169084156108fc029085906000818181858888f19350505050158015611863573d6000803e3d6000fd5b506119ab565b6000871161187657600080fd5b600254604080517fa306cdeb000000000000000000000000000000000000000000000000000000008152600481018b90529051600160a060020a039092169163a306cdeb916024808201926020929091908290030181600087803b1580156118dd57600080fd5b505af11580156118f1573d6000803e3d6000fd5b505050506040513d602081101561190757600080fd5b5051604080517f23b872dd000000000000000000000000000000000000000000000000000000008152336004820152600160a060020a038781166024830152604482018b90529151929450908416916323b872dd916064808201926020929091908290030181600087803b15801561197e57600080fd5b505af1158015611992573d6000803e3d6000fd5b505050506040513d60208110156119a857600080fd5b50505b6119b78c8b8b896131c5565b60408051338152602081018e905281517fbb28353e4598c3b9199101a66e0989549b659a59a54d2c27fbb183f1932c8e6d929181900390910190a15060019b9a5050505050505050505050565b611a208383836020604051908101604052806000815250613364565b505050565b600054600160a060020a03163314611a3c57600080fd5b60008054604051600160a060020a0390911691303180156108fc02929091818181858888f19350505050158015611a77573d6000803e3d6000fd5b50565b600081818111611a8957600080fd5b6002546040805160e060020a63e7f95c45028152600481018490529051600092600160a060020a03169163e7f95c4591602480830192602092919082900301818787803b158015611ad957600080fd5b505af1158015611aed573d6000803e3d6000fd5b505050506040513d6020811015611b0357600080fd5b5051600160a060020a03161415611b1957600080fd5b6002546040805160e060020a63e7f95c45028152600481018690529051600160a060020a03909216916330c7090391839163e7f95c45916024808201926020929091908290030181600087803b158015611b7257600080fd5b505af1158015611b86573d6000803e3d6000fd5b505050506040513d6020811015611b9c57600080fd5b50516040805160e060020a63ffffffff8516028152600160a060020a039092166004830152602482018790525160448083019260209291908290030181600087803b15801561094857600080fd5b60008060008060008060006060600260009054906101000a9004600160a060020a0316600160a060020a0316633bdf58788a6040518263ffffffff1660e060020a0281526004018082815260200191505060e060405180830381600087803b158015611c5557600080fd5b505af1158015611c69573d6000803e3d6000fd5b505050506040513d60e0811015611c7f57600080fd5b8101908080519060200190929190805190602001909291908051906020019092919080519060200190929190805190602001909291908051906020019092919080519060200190929190505050809850819950829a50839b50849c50859d50869e5050505050505050600260009054906101000a9004600160a060020a0316600160a060020a031663762fdc0c89896040518363ffffffff1660e060020a0281526004018083815260200182815260200192505050600060405180830381600087803b158015611d4e57600080fd5b505af1158015611d62573d6000803e3d6000fd5b505050506040513d6000823e601f3d908101601f191682016040526060811015611d8b57600080fd5b810190808051640100000000811115611da357600080fd5b82016020810184811115611db657600080fd5b8151640100000000811182820187101715611dd057600080fd5b509b9d9a9c50989a5096989597949650929492505050565b6000808211611df657600080fd5b6002546040805160e060020a63e7f95c45028152600481018590529051600160a060020a039092169163e7f95c45916024808201926020929091908290030181600087803b158015611e4757600080fd5b505af1158015611e5b573d6000803e3d6000fd5b505050506040513d6020811015611e7157600080fd5b505192915050565b6000600160a060020a0382161515611e9057600080fd5b600254604080517f70a08231000000000000000000000000000000000000000000000000000000008152600160a060020a038581166004830152915191909216916370a082319160248083019260209291908290030181600087803b158015611e4757600080fd5b600154600160a060020a03163314611f0f57600080fd5b60015460008054604051600160a060020a0393841693909116917f8be0079c531659141344cd1fd0a4f28419497f9722a3daafe3b4186f6b6457e091a3600180546000805473ffffffffffffffffffffffffffffffffffffffff19908116600160a060020a03841617909155169055565b600054600160a060020a03163314611f9757600080fd5b600054600160a060020a0316ff5b600080548190600160a060020a03163314611fbf57600080fd5b604080517f70a082310000000000000000000000000000000000000000000000000000000081523060048201529051849350600160a060020a038416916370a082319160248083019260209291908290030181600087803b15801561202357600080fd5b505af1158015612037573d6000803e3d6000fd5b505050506040513d602081101561204d57600080fd5b505160008054604080517fa9059cbb000000000000000000000000000000000000000000000000000000008152600160a060020a0392831660048201526024810185905290519394509085169263a9059cbb92604480840193602093929083900390910190829087803b1580156120c357600080fd5b505af11580156120d7573d6000803e3d6000fd5b505050506040513d60208110156120ed57600080fd5b5050505050565b60606000821561221257600254604080517f4cb0c7a10000000000000000000000000000000000000000000000000000000081523360048201526024810188905260448101879052600160648201529051600160a060020a0390921691634cb0c7a19160848082019260009290919082900301818387803b15801561217857600080fd5b505af115801561218c573d6000803e3d6000fd5b505050506040513d6000823e601f3d908101601f1916820160409081528110156121b557600080fd5b8101908080516401000000008111156121cd57600080fd5b820160208101848111156121e057600080fd5b81518560208202830111640100000000821117156121fd57600080fd5b5050602090910151909450925061228c915050565b600254604080517f600cf0d90000000000000000000000000000000000000000000000000000000081523360048201526024810188905260448101879052600160648201529051600160a060020a039092169163600cf0d99160848082019260009290919082900301818387803b15801561217857600080fd5b935093915050565b600054600160a060020a031681565b60408051808201909152600381527f54524e0000000000000000000000000000000000000000000000000000000000602082015290565b600160a060020a03821615156122ef57600080fd5b600254604080517f35058a2a000000000000000000000000000000000000000000000000000000008152600160a060020a0385811660048301523360248301528415156044830152915191909216916335058a2a91606480830192600092919082900301818387803b15801561236457600080fd5b505af1158015612378573d6000803e3d6000fd5b50506040805184151581529051600160a060020a03861693503392507f17307eab39ab6107e8899845ad3d59bd9653f200f220920489ca2b5937696c319181900360200190a35050565b6000828181116123d157600080fd5b6002546040805160e060020a63e7f95c45028152600481018490529051600092600160a060020a03169163e7f95c4591602480830192602092919082900301818787803b15801561242157600080fd5b505af1158015612435573d6000803e3d6000fd5b505050506040513d602081101561244b57600080fd5b5051600160a060020a0316141561246157600080fd5b83600080600080600260009054906101000a9004600160a060020a0316600160a060020a031663e7f95c45866040518263ffffffff1660e060020a02815260040180828152602001915050602060405180830381600087803b1580156124c657600080fd5b505af11580156124da573d6000803e3d6000fd5b505050506040513d60208110156124f057600080fd5b50516002546040805160e160020a632376fe85028152600481018990529051929650600160a060020a0380881633149650909116916346edfd0a916024808201926020929091908290030181600087803b15801561254d57600080fd5b505af1158015612561573d6000803e3d6000fd5b505050506040513d602081101561257757600080fd5b50516002546040805160e260020a6303657815028152600160a060020a038881166004830152336024830181905292519481169092149550911691630d95e054916044808201926020929091908290030181600087803b1580156125da57600080fd5b505af11580156125ee573d6000803e3d6000fd5b505050506040513d602081101561260457600080fd5b5051905082806126115750815b806126195750805b151561262457600080fd5b600254604080517f602b7001000000000000000000000000000000000000000000000000000000008152336004820152602481018c90528a151560448201529051600160a060020a039092169163602b70019160648082019260009290919082900301818387803b15801561269857600080fd5b505af11580156126ac573d6000803e3d6000fd5b5050604080513381528b1515602082015281518d94507fa8b03d10e96b23d3ed7630fcc9e32aec81ef79975e8d1345dd9e98306b73805393509081900390910190a250600198975050505050505050565b6120ed85858585858080601f01602080910402602001604051908101604052809392919081815260200183838082843750613364945050505050565b600080548190600160a060020a0316331461275357600080fd5b600254604080517fa306cdeb000000000000000000000000000000000000000000000000000000008152600481018690529051600160a060020a039092169163a306cdeb916024808201926020929091908290030181600087803b1580156127ba57600080fd5b505af11580156127ce573d6000803e3d6000fd5b505050506040513d60208110156127e457600080fd5b5051604080517f70a082310000000000000000000000000000000000000000000000000000000081523060048201529051919350600160a060020a038416916370a08231916024808201926020929091908290030181600087803b15801561202357600080fd5b600054600160a060020a0316331461286257600080fd5b6002805473ffffffffffffffffffffffffffffffffffffffff1916600160a060020a0392909216919091179055565b6060806000818080868481116128a657600080fd5b6002546040805160e060020a63e7f95c45028152600481018490529051600092600160a060020a03169163e7f95c4591602480830192602092919082900301818787803b1580156128f657600080fd5b505af115801561290a573d6000803e3d6000fd5b505050506040513d602081101561292057600080fd5b5051600160a060020a0316141561293657600080fd5b60408051600280825281830183529091602083019080388339505081519197507f120000000000000000000000000000000000000000000000000000000000000091889150600090811061298657fe5b906020010190600160f860020a031916908160001a90535085517f200000000000000000000000000000000000000000000000000000000000000090879060019081106129cf57fe5b906020010190600160f860020a031916908160001a905350600254604080517f3bdf5878000000000000000000000000000000000000000000000000000000008152600481018b90529051600160a060020a0390921691633bdf58789160248082019260e0929091908290030181600087803b158015612a4e57600080fd5b505af1158015612a62573d6000803e3d6000fd5b505050506040513d60e0811015612a7857600080fd5b5060c001519450612a98612a8b8661383d565b879063ffffffff6138c316565b9350612aa3846139d8565b9250600260009054906101000a9004600160a060020a0316600160a060020a0316634e99b8006040518163ffffffff1660e060020a028152600401600060405180830381600087803b158015612af857600080fd5b505af1158015612b0c573d6000803e3d6000fd5b505050506040513d6000823e601f3d908101601f191682016040526020811015612b3557600080fd5b810190808051640100000000811115612b4d57600080fd5b82016020810184811115612b6057600080fd5b8151640100000000811182820187101715612b7a57600080fd5b50909550612b9593508592508691505063ffffffff6138c316565b98975050505050505050565b600154600160a060020a031681565b600080600087876000600260009054906101000a9004600160a060020a0316600160a060020a03166365de1eb3846040518263ffffffff1660e060020a02815260040180828152602001915050600060405180830381600087803b158015612c1757600080fd5b505af1158015612c2b573d6000803e3d6000fd5b505050506040513d6000823e601f3d908101601f191682016040526080811015612c5457600080fd5b810190808051640100000000811115612c6c57600080fd5b82016020810184811115612c7f57600080fd5b8151640100000000811182820187101715612c9957600080fd5b5050506060015192505050801515612cb057600080fd5b600254604080517f6b65a83400000000000000000000000000000000000000000000000000000000815260048101869052602481018590529051600160a060020a0390921691636b65a834916044808201926020929091908290030181600087803b158015612d1e57600080fd5b505af1158015612d32573d6000803e3d6000fd5b505050506040513d6020811015612d4857600080fd5b50511515612d5557600080fd5b8888808060200260200160405190810160405280939291908181526020018383602002808284375060009450505050505b8151811015612de65760008282815181101515612d9f57fe5b6020908102909101015111612db357600080fd5b612dd38282815181101515612dc457fe5b90602001906020020151613b5f565b1515612dde57600080fd5b600101612d86565b600260009054906101000a9004600160a060020a0316600160a060020a03166365de1eb38e6040518263ffffffff1660e060020a02815260040180828152602001915050600060405180830381600087803b158015612e4457600080fd5b505af1158015612e58573d6000803e3d6000fd5b505050506040513d6000823e601f3d908101601f191682016040526080811015612e8157600080fd5b810190808051640100000000811115612e9957600080fd5b82016020810184811115612eac57600080fd5b8151640100000000811182820187101715612ec657600080fd5b50509291906020018051906020019092919080519060200190929190805190602001909291905050505050975050612f308d888e8e8e808060200260200160405190810160405280939291908181526020018383602002808284378201915050505050508d613c6a565b9550851515612f3e57600080fd5b8b87600160a060020a031633600160a060020a03167f378b913ef532468f5ca14ee9e03c0b47e22440edd666fd7fcb4b7f146c1b752a8e8e8e604051808060200183815260200182810382528585828181526020019250602002808284376040519201829003965090945050505050a45060019c9b505050505050505050505050565b6002546040805160e260020a6303657815028152600160a060020a038581166004830152848116602483015291516000939290921691630d95e0549160448082019260209290919082900301818787803b15801561094857600080fd5b600054600160a060020a0316331461303557600080fd5b6001805473ffffffffffffffffffffffffffffffffffffffff1916600160a060020a0392909216919091179055565b6002546040805160e060020a63e7f95c45028152600481018590529051600092600160a060020a03169163e7f95c4591602480830192602092919082900301818787803b1580156130b457600080fd5b505af11580156130c8573d6000803e3d6000fd5b505050506040513d60208110156130de57600080fd5b505190506130ec818461405c565b6130f8828460006140e6565b600254604080517f491a790400000000000000000000000000000000000000000000000000000000815260048101869052600160a060020a0385811660248301529151919092169163491a790491604480830192600092919082900301818387803b15801561316657600080fd5b505af115801561317a573d6000803e3d6000fd5b5050604080518681529051600160a060020a038087169450851692507fddf252ad1be2c89b69c2b068fc378daa952ba7f163c4a11628f55a4df523b3ef9181900360200190a3505050565b6002546040805160e060020a63e7f95c4502815260048101879052905161324992600160a060020a03169163e7f95c459160248083019260209291908290030181600087803b15801561321757600080fd5b505af115801561322b573d6000803e3d6000fd5b505050506040513d602081101561324157600080fd5b50518561405c565b600254604080517fbbb7eb64000000000000000000000000000000000000000000000000000000008152600481018690526024810185905260448101849052600160648201529051600160a060020a039092169163bbb7eb649160848082019260009290919082900301818387803b1580156132c457600080fd5b505af11580156132d8573d6000803e3d6000fd5b5050600254604080517f491a7904000000000000000000000000000000000000000000000000000000008152600481018990526000602482018190529151600160a060020a03909316945063491a790493506044808201939182900301818387803b15801561334657600080fd5b505af115801561335a573d6000803e3d6000fd5b5050505050505050565b600080808481811161337557600080fd5b6002546040805160e060020a63e7f95c45028152600481018490529051600092600160a060020a03169163e7f95c4591602480830192602092919082900301818787803b1580156133c557600080fd5b505af11580156133d9573d6000803e3d6000fd5b505050506040513d60208110156133ef57600080fd5b5051600160a060020a0316141561340557600080fd5b85600080600080600260009054906101000a9004600160a060020a0316600160a060020a031663e7f95c45866040518263ffffffff1660e060020a02815260040180828152602001915050602060405180830381600087803b15801561346a57600080fd5b505af115801561347e573d6000803e3d6000fd5b505050506040513d602081101561349457600080fd5b50516002546040805160e160020a632376fe85028152600481018990529051929650600160a060020a0380881633149650909116916346edfd0a916024808201926020929091908290030181600087803b1580156134f157600080fd5b505af1158015613505573d6000803e3d6000fd5b505050506040513d602081101561351b57600080fd5b50516002546040805160e260020a6303657815028152600160a060020a038881166004830152336024830181905292519481169092149550911691630d95e054916044808201926020929091908290030181600087803b15801561357e57600080fd5b505af1158015613592573d6000803e3d6000fd5b505050506040513d60208110156135a857600080fd5b5051905082806135b55750815b806135bd5750805b15156135c857600080fd5b6002546040805160e060020a63e7f95c45028152600481018e90529051600160a060020a039092169163e7f95c45916024808201926020929091908290030181600087803b15801561361957600080fd5b505af115801561362d573d6000803e3d6000fd5b505050506040513d602081101561364357600080fd5b50519850600160a060020a03808a16908e161461365f57600080fd5b600160a060020a038c16151561367457600080fd5b61367e8b8d613064565b8b3b975087151561368e5761382e565b8b600160a060020a031663f0b9e5ba8e8d8d6040518463ffffffff1660e060020a0281526004018084600160a060020a0316600160a060020a0316815260200183815260200180602001828103825283818151815260200191508051906020019080838360005b8381101561370d5781810151838201526020016136f5565b50505050905090810190601f16801561373a5780820380516001836020036101000a031916815260200191505b50945050505050602060405180830381600087803b15801561375b57600080fd5b505af115801561376f573d6000803e3d6000fd5b505050506040513d602081101561378557600080fd5b5051600254604080517fecc98ce40000000000000000000000000000000000000000000000000000000081529051929950600160a060020a039091169163ecc98ce4916004808201926020929091908290030181600087803b1580156137ea57600080fd5b505af11580156137fe573d6000803e3d6000fd5b505050506040513d602081101561381457600080fd5b5051600160e060020a031988811691161461382e57600080fd5b50505050505050505050505050565b604080516020808252818301909252606091829160009180820161040080388339019050509150600090505b60208160ff1610156138bc578360ff82166020811061388457fe5b1a60f860020a02828260ff1681518110151561389c57fe5b906020010190600160f860020a031916908160001a905350600101613869565b5092915050565b606080600083518551016040519080825280601f01601f1916602001820160405280156138fa578160200160208202803883390190505b509150600090505b84518161ffff16101561396657848161ffff1681518110151561392157fe5b90602001015160f860020a900460f860020a02828261ffff1681518110151561394657fe5b906020010190600160f860020a031916908160001a905350600101613902565b83518551018161ffff1610156139d0578385518261ffff160381518110151561398b57fe5b90602001015160f860020a900460f860020a02828261ffff168151811015156139b057fe5b906020010190600160f860020a031916908160001a905350600101613966565b509392505050565b606080600080600080606487516088028115156139f157fe5b04600101604051908082528060200260200182016040528015613a1e578160200160208202803883390190505b5094506000856000815181101515613a3257fe5b60ff90921660209283029091019091015260019350600092505b8651831015613b3a578683815181101515613a6357fe5b90602001015160f860020a900460f860020a0260f860020a900460ff169150600090505b8360ff16811015613aef578481815181101515613aa057fe5b9060200190602002015160ff166101000282019150603a82811515613ac157fe5b068582815181101515613ad057fe5b60ff909216602092830290910190910152603a82049150600101613a87565b6000821115613b2f57603a8206858560ff16815181101515613b0d57fe5b60ff909216602092830290910190910152600190930192603a82049150613aef565b826001019250613a4c565b613b54613b4f613b4a878761422d565b6142b1565b614337565b979650505050505050565b6000612710808304906064808302818604039183029082028503036107b2831080613b8b575060008211155b80613b965750600c82115b80613ba2575060008111155b80613bad5750601f81115b15613bbb5760009350613c62565b8160041480613bca5750816006145b80613bd55750816009145b80613be0575081600b145b15613bf75780601f1415613bf75760009350613c62565b60048306158015613c0a57506064830615155b80613c1757506101908306155b15613c3f57816002148015613c2c5750601d81115b15613c3a5760009350613c62565b613c5d565b816002148015613c4f5750601c81115b15613c5d5760009350613c62565b600193505b505050919050565b6000606080600080600080600260009054906101000a9004600160a060020a0316600160a060020a031663644e8b248d8c8c8c6040518563ffffffff1660e060020a0281526004018085815260200184815260200180602001838152602001828103825284818151815260200191508051906020019060200280838360005b83811015613d01578181015183820152602001613ce9565b5050505090500195505050505050600060405180830381600087803b158015613d2957600080fd5b505af1158015613d3d573d6000803e3d6000fd5b505050506040513d6000823e601f3d908101601f191682016040908152811015613d6657600080fd5b810190808051640100000000811115613d7e57600080fd5b82016020810184811115613d9157600080fd5b8151856020820283011164010000000082111715613dae57600080fd5b50509291906020018051640100000000811115613dca57600080fd5b82016020810184811115613ddd57600080fd5b8151856020820283011164010000000082111715613dfa57600080fd5b50949a50985060009750879650505050505b8851831015613eaf578583815181101515613e2357fe5b9060200190602002015161ffff1660001480613e5657508483815181101515613e4857fe5b906020019060200201516000145b15613e64576000965061404d565b8483815181101515613e7257fe5b9060200190602002015184019350613ea48c8b8b86815181101515613e9357fe5b90602001906020020151338c614441565b600190920191613e0c565b871515613efe57348414613ec257600080fd5b604051600160a060020a038c169085156108fc029086906000818181858888f19350505050158015613ef8573d6000803e3d6000fd5b50614048565b600254604080517fa306cdeb000000000000000000000000000000000000000000000000000000008152600481018b90529051600160a060020a039092169163a306cdeb916024808201926020929091908290030181600087803b158015613f6557600080fd5b505af1158015613f79573d6000803e3d6000fd5b505050506040513d6020811015613f8f57600080fd5b50519150600160a060020a0382161515613fa857600080fd5b50604080517f23b872dd000000000000000000000000000000000000000000000000000000008152336004820152600160a060020a038c8116602483015260448201869052915183928316916323b872dd9160648083019260209291908290030181600087803b15801561401b57600080fd5b505af115801561402f573d6000803e3d6000fd5b505050506040513d602081101561404557600080fd5b50505b600196505b50505050505095945050505050565b600254604080517f28543417000000000000000000000000000000000000000000000000000000008152600160a060020a0385811660048301526024820185905291519190921691632854341791604480830192600092919082900301818387803b1580156140ca57600080fd5b505af11580156140de573d6000803e3d6000fd5b505050505050565b600160a060020a03831615156140fb57600080fd5b81151561410757600080fd5b801561419d57600254604080517f6cd44d55000000000000000000000000000000000000000000000000000000008152600160a060020a038681166004830152602482018690526000604483018190529251931692636cd44d559260648084019391929182900301818387803b15801561418057600080fd5b505af1158015614194573d6000803e3d6000fd5b50505050611a20565b600254604080517f5ec5bc8e000000000000000000000000000000000000000000000000000000008152600160a060020a038681166004830152602482018690526000604483018190529251931692635ec5bc8e9260648084019391929182900301818387803b15801561421057600080fd5b505af1158015614224573d6000803e3d6000fd5b50505050505050565b60608060008360ff1660405190808252806020026020018201604052801561425f578160200160208202803883390190505b509150600090505b8360ff168110156139d057848181518110151561428057fe5b90602001906020020151828281518110151561429857fe5b60ff909216602092830290910190910152600101614267565b606080600083516040519080825280602002602001820160405280156142e1578160200160208202803883390190505b509150600090505b83518110156138bc57835184908281036000190190811061430657fe5b90602001906020020151828281518110151561431e57fe5b60ff9092166020928302909101909101526001016142e9565b606080600083516040519080825280601f01601f19166020018201604052801561436b578160200160208202803883390190505b509150600090505b83518110156138bc57606060405190810160405280603a81526020017f31323334353637383941424344454647484a4b4c4d4e5051525354555657585981526020017f5a6162636465666768696a6b6d6e6f707172737475767778797a00000000000081525084828151811015156143e757fe5b9060200190602002015160ff1681518110151561440057fe5b90602001015160f860020a900460f860020a02828281518110151561442157fe5b906020010190600160f860020a031916908160001a905350600101614373565b600254604080517fc4725577000000000000000000000000000000000000000000000000000000008152600481018890526024810187905260448101869052606481018490529051600092839283928392600160a060020a03169163c472557791608480830192606092919082900301818787803b1580156144c257600080fd5b505af11580156144d6573d6000803e3d6000fd5b505050506040513d60608110156144ec57600080fd5b5060409081015160025482517f762fdc0c000000000000000000000000000000000000000000000000000000008152600481018d9052602481018c90529251919650600160a060020a03169163762fdc0c91604480830192600092919082900301818387803b15801561455e57600080fd5b505af1158015614572573d6000803e3d6000fd5b505050506040513d6000823e601f3d908101601f19168201604052606081101561459b57600080fd5b8101908080516401000000008111156145b357600080fd5b820160208101848111156145c657600080fd5b81516401000000008111828201871017156145e057600080fd5b50505060409081015160025482517fc6f70370000000000000000000000000000000000000000000000000000000008152600481018f9052602481018e9052604481018d9052606481018b9052608481018a905260a481018390529251919750600160a060020a0316935063c6f70370925060c48083019260209291908290030181600087803b15801561467357600080fd5b505af1158015614687573d6000803e3d6000fd5b505050506040513d602081101561469d57600080fd5b5051600254604080517f491a790400000000000000000000000000000000000000000000000000000000815260048101849052600160a060020a038a81166024830152915193955091169163491a79049160448082019260009290919082900301818387803b15801561470f57600080fd5b505af1158015614723573d6000803e3d6000fd5b50505050614733868360006140e6565b600254604080517f65de1eb3000000000000000000000000000000000000000000000000000000008152600481018c90529051600160a060020a03909216916365de1eb39160248082019260009290919082900301818387803b15801561479957600080fd5b505af11580156147ad573d6000803e3d6000fd5b505050506040513d6000823e601f3d908101601f1916820160405260808110156147d657600080fd5b8101908080516401000000008111156147ee57600080fd5b8201602081018481111561480157600080fd5b815164010000000081118282018710171561481b57600080fd5b50505060200151925061483491508290508360016140e6565b600254604080517fde5dead6000000000000000000000000000000000000000000000000000000008152600481018c9052602481018b9052604481018a9052600160648201529051600160a060020a039092169163de5dead69160848082019260009290919082900301818387803b1580156148af57600080fd5b505af115801561382e573d6000803e3d6000fd00a165627a7a72305820a40351aa3b68beee6de90200c85279e0341c2f2176e5159dbbc1144048d8630e0029",
  "source": "pragma solidity ^0.4.24;\n\nimport \"./extensions/TRNAsset.sol\";\nimport \"./extensions/TRNOwnership.sol\";\nimport \"./extensions/TRNSupportsInterface.sol\";\nimport \"./extensions/TRNTransactions.sol\";\n\ncontract TripioRoomNightCustomer is TRNAsset, TRNSupportsInterface, TRNOwnership, TRNTransactions {\n    /**\n     * Constructor\n     */\n    constructor(address _dataSource) public {\n        // Init the data source\n        dataSource = TripioRoomNightData(_dataSource);\n    }\n\n    /**\n     * @dev Update the data source\n     */\n    function updateDataSource(address _dataSource) external onlyOwner {\n        // Update the data source\n        dataSource = TripioRoomNightData(_dataSource);\n    }\n\n    /**\n     * @dev Withdraw ETH balance from contract account, the balance will transfer to the contract owner\n     */\n    function withdrawBalance() external onlyOwner {\n        owner.transfer(address(this).balance);\n    }\n\n    /**\n     * @dev Withdraw other TOKEN balance from contract account, the balance will transfer to the contract owner\n     * @param _token The TOKEN id\n     */\n    function withdrawTokenId(uint _token) external onlyOwner {\n        TripioToken tripio = TripioToken(dataSource.tokenIndexToAddress(_token));\n        uint256 tokens = tripio.balanceOf(address(this));\n        tripio.transfer(owner, tokens);\n    }\n\n    /**\n     * @dev Withdraw other TOKEN balance from contract account, the balance will transfer to the contract owner\n     * @param _tokenAddress The TOKEN address\n     */\n    function withdrawToken(address _tokenAddress) external onlyOwner {\n        TripioToken tripio = TripioToken(_tokenAddress);\n        uint256 tokens = tripio.balanceOf(address(this));\n        tripio.transfer(owner, tokens);\n    }\n\n    /**\n     * @dev Destory the contract\n     */\n    function destroy() external onlyOwner {\n        selfdestruct(owner);\n    }\n\n    function() external payable {\n\n    }\n}",
  "sourcePath": "/Users/Kirn/Documents/Workspace/Trip.io/tripio-tron/tronbox/contracts/TripioRoomNightCustomer.sol",
  "compiler": {
    "name": "solc",
    "version": "0.4.24+commit.e67f0147.Emscripten.clang"
  },
  "schemaVersion": "2.0.1",
  "updatedAt": "2018-11-24T04:36:24.958Z"
}